:020000040000fa
:080000000002040000000000f2
:020000040000fa
:04000800a80200004a
:020000040000fa
:04000c00a802000046
:020000040000fa
:04001000a802000042
:020000040000fa
:04001400a80200003e
:020000040000fa
:04001800a80200003a
:020000040000fa
:04001c00a802000036
:020000040000fa
:04002000a802000032
:020000040000fa
:04002400a80200002e
:020000040000fa
:04002800a80200002a
:020000040000fa
:04002c00a802000026
:020000040000fa
:04003000a802000022
:020000040000fa
:040034000e150000a5
:020000040000fa
:04003800a80200001a
:020000040000fa
:04003c00a802000016
:020000040000fa
:04004000a802000012
:020000040000fa
:04004400a80200000e
:020000040000fa
:04004800a80200000a
:020000040000fa
:04004c00a802000006
:020000040000fa
:04005000a802000002
:020000040000fa
:04005400a8020000fe
:020000040000fa
:04005800a8020000fa
:020000040000fa
:04005c00a8020000f6
:020000040000fa
:04006000a8020000f2
:020000040000fa
:04006400a8020000ee
:020000040000fa
:04006800a8020000ea
:020000040000fa
:04006c00a8020000e6
:020000040000fa
:04007000a8020000e2
:020000040000fa
:04007400a8020000de
:020000040000fa
:0400780088180000e4
:020000040000fa
:04007c00a8020000d6
:020000040000fa
:04008000a8020000d2
:020000040000fa
:04008400a8020000ce
:020000040000fa
:04008800a8020000ca
:020000040000fa
:04008c00a8020000c6
:020000040000fa
:04009000a8020000c2
:020000040000fa
:04009400a6150000ad
:020000040000fa
:04009800a8020000ba
:020000040000fa
:04009c00a8020000b6
:020000040000fa
:0400a000a8020000b2
:020000040000fa
:0400a400a8020000ae
:020000040000fa
:0400a800a8020000aa
:020000040000fa
:0400ac00a8020000a6
:020000040000fa
:0400b000a8020000a2
:020000040000fa
:0400b400a80200009e
:020000040000fa
:0400b800a80200009a
:020000040000fa
:0400bc00a802000096
:020000040000fa
:0400c000a802000092
:020000040000fa
:0400c400a80200008e
:020000040000fa
:0400c800a80200008a
:020000040000fa
:0400cc00a802000086
:020000040000fa
:0400d000a802000082
:020000040000fa
:0400d400a80200007e
:020000040000fa
:0400d800a80200007a
:020000040000fa
:0400dc00a802000076
:020000040000fa
:0400e000a802000072
:020000040000fa
:0400e400a80200006e
:020000040000fa
:0400e800a80200006a
:020000040000fa
:0400ec00a802000066
:020000040000fa
:0400f000a802000062
:020000040000fa
:0400f400a80200005e
:020000040000fa
:0400f800a80200005a
:020000040000fa
:0400fc00a802000056
:020000040000fa
:04010000a802000051
:020000040000fa
:04010400a80200004d
:020000040000fa
:04010800a802000049
:020000040000fa
:04010c00a802000045
:020000040000fa
:04011000a802000041
:020000040000fa
:04011400a80200003d
:020000040000fa
:04011800a802000039
:020000040000fa
:04011c00a802000035
:020000040000fa
:04012000a802000031
:020000040000fa
:04012400a80200002d
:020000040000fa
:04012800a802000029
:020000040000fa
:04012c00a802000025
:020000040000fa
:04013000a802000021
:020000040000fa
:04013400a80200001d
:020000040000fa
:04013800a802000019
:020000040000fa
:04013c00a802000015
:020000040000fa
:04014000a802000011
:020000040000fa
:04014400a80200000d
:020000040000fa
:04014800a802000009
:020000040000fa
:04014c00a802000005
:020000040000fa
:04015000a802000001
:020000040000fa
:04015400a8020000fd
:020000040000fa
:04015800a8020000f9
:020000040000fa
:04015c00a8020000f5
:020000040000fa
:04020800a802000048
:020000040000fa
:04020c00a802000044
:020000040000fa
:04021000a802000040
:020000040000fa
:04021400a80200003c
:020000040000fa
:04021800a802000038
:020000040000fa
:04021c00a802000034
:020000040000fa
:04022000a802000030
:020000040000fa
:04022400a80200002c
:020000040000fa
:04022800a802000028
:020000040000fa
:04022c00a802000024
:020000040000fa
:04023000a802000020
:020000040000fa
:04023400a80200001c
:020000040000fa
:04023800a802000018
:020000040000fa
:04023c00a802000014
:020000040000fa
:04024000a802000010
:020000040000fa
:04024400a80200000c
:020000040000fa
:04024800a802000008
:020000040000fa
:04024c00a802000004
:020000040000fa
:04025000a802000000
:020000040000fa
:04025400a8020000fc
:020000040000fa
:04025800a8020000f8
:020000040000fa
:04025c00a8020000f4
:020000040000fa
:04026000a8020000f0
:020000040000fa
:04026400a8020000ec
:020000040000fa
:04026800a8020000e8
:020000040000fa
:04026c00a8020000e4
:020000040000fa
:04027000a8020000e0
:020000040000fa
:04027400a8020000dc
:020000040000fa
:04027800a8020000d8
:020000040000fa
:04027c00a8020000d4
:020000040000fa
:04028000a8020000d0
:020000040000fa
:04028400a8020000cc
:020000040000fa
:04028800a8020000c8
:020000040000fa
:04028c00a8020000c4
:020000040000fa
:04029000a8020000c0
:020000040000fa
:04029400a8020000bc
:020000040000fa
:04029800a8020000b8
:020000040000fa
:04029c00a8020000b4
:020000040000fa
:0402a000a8020000b0
:020000040000fa
:0402a400a8020000ac
:020000040000fa
:0402a800a8020000a8
:020000040000fa
:0402ac00a8020000a4
:020000040000fa
:0402b000a8020000a0
:020000040000fa
:0402b400a80200009c
:020000040000fa
:0402b800a802000098
:020000040000fa
:0402bc00a802000094
:020000040000fa
:0402c000a802000090
:020000040000fa
:0402c400a80200008c
:020000040000fa
:0402c800a802000088
:020000040000fa
:0402cc00a802000084
:020000040000fa
:0402d000a802000080
:020000040000fa
:0402d400a80200007c
:020000040000fa
:0402d800a802000078
:020000040000fa
:0402dc00a802000074
:020000040000fa
:0402e000a802000070
:020000040000fa
:0402e400a80200006c
:020000040000fa
:0402e800a802000068
:020000040000fa
:0402ec00a802000064
:020000040000fa
:0402f000a802000060
:020000040000fa
:0402f400a80200005c
:020000040000fa
:0402f800a802000058
:020000040000fa
:0402fc00a802000054
:020000040000fa
:04030000a80200004f
:020000040000fa
:04030400a80200004b
:020000040000fa
:04030800a802000047
:020000040000fa
:04030c00a802000043
:020000040000fa
:04031000a80200003f
:020000040000fa
:04031400a80200003b
:020000040000fa
:04031800a802000037
:020000040000fa
:04031c00a802000033
:020000040000fa
:04032000a80200002f
:020000040000fa
:04032400a80200002b
:020000040000fa
:04032800a802000027
:020000040000fa
:04032c00a802000023
:020000040000fa
:04033000a80200001f
:020000040000fa
:04033400a80200001b
:020000040000fa
:04033800a802000017
:020000040000fa
:04033c00a802000013
:020000040000fa
:04034000a80200000f
:020000040000fa
:04034400a80200000b
:020000040000fa
:04034800a802000007
:020000040000fa
:04034c00a802000003
:020000040000fa
:04035000a8020000ff
:020000040000fa
:04035400a8020000fb
:020000040000fa
:04035800a8020000f7
:020000040000fa
:04035c00a8020000f3
:020000040000fa
:10040000cf9820000e7f22000e018800000000001f
:10041000000020000000e000020032000001200087
:10042000200288000c00070020d2210001002000db
:1004300011000700000020000000e0000200320070
:100440000000020000000000a01c020000000000ec
:100450000040da000000fe004440a90080002000b7
:100460000000e0000300320000002000a00188002e
:100470004440a80000000600910188008000780038
:100480000000eb0015003700e280400032a0b4000d
:100490009101ba00e280400032a0b4009102ba009b
:1004a000e280400032a0b4000002eb00472bde00e7
:1004b000f507b200602ce10004003a000059eb009f
:1004c0008301e900fdff3e00040037006128e100e0
:1004d000010032000082eb000b00070011c3ba00dc
:1004e0001101ba000604e00003003a000200e00037
:1004f000e5ff3a0000000600f607b200960188000a
:1005000082007800f5ff37003159ba008301e90015
:100510000c0032002159ba008301e90008003200c2
:100520000400e00003003a00e280400032a0b40082
:10053000f5ff370011d9ba008301e900faff3a004c
:100540008100e800e180400032a0b4000000060015
:100550000040da000000fe000a00fa00e20f50003e
:1005600020003e00504c8000e10f50000600320099
:100570008023200045232000232320000423200083
:100580000000e00004003a00802220004522200004
:100590002322200004222000060028001403630008
:1005a00003003a000608780000002800140a7000d2
:1005b00013a8a30001003a0013a0a00002007800d5
:1005c000050037001388a300feff32003102fb0054
:1005d000840a78000000e9000000e000f9ff3a001a
:1005e0000800370033002000b3bf9f00c0bf9f004a
:1005f000d1bf9f00e2bf9f006a805700f20307004f
:100600006fb99700020078000080fa000000060031
:10061000c1942000070037000000fa0068815700ed
:10062000cfb89700c09420004e0007000080fa0069
:1006300000000600889fbe0001047800b80090000a
:100640008084eb000118a3003a00320018019000ea
:100650000198a30002003a000200e00035003a00d1
:100660000190a0003104980080047800f90fb200d6
:100670000200e00002003a0028009000000c780020
:10068000ea8f540005003a000178a30003003a0005
:1006900088007800d0002000e6ff070018009000d6
:1006a000d8009000810f50000b0032000000e800dd
:1006b000100498001800780009487800000ce80041
:1006c00011c0b3004098200001487800ea8f540020
:1006d00018003a00050037008800780009407800cb
:1006e0007a03070080047800120037003800900079
:1006f0000088a3000f00320018019000a8009000ad
:100700004800900094ff070098009000810f50006f
:1007100004003200380090000003b3003004980059
:100720008084eb000000eb0010049800280090008b
:10073000000c7800090078004f04be00000006009d
:10074000d0019000028151004240a9000300340012
:1007500010017800014978000208e80001007800e3
:10076000000006002f02b000889fbe008a9fbe00d6
:100770008c9fbe008e1f780080067800d1af9f004e
:1007800092b79f000007eb0044033700dfa89700f3
:100790008100e800d1af9f0051c2b300814f5000eb
:1007a00003003a005fa897000006eb001100370035
:1007b000bd0090000000fb000168a30007003200ac
:1007c0000e017800800078000d007800dcff070043
:1007d0000000e00005003a00300337008d0078008b
:1007e00094ff0700e10f40002c0332000e07e800e1
:1007f0002a0337008000780030417800d3c2b3006c
:10080000834f51000c00320007003c00edc1510045
:10081000834f51000a003200ebc14100834f510069
:100820000d003a000800370003c3b300834f5100a6
:1008300009003a00060037000c30a000edff370039
:100840000c00a000ebff37000c10a000e9ff370000
:100850000c20a000e7ff37000c18a30001003200b5
:100860000c00a1000c38a300010032000c20a100f4
:100870000200fb000003b100e90f50000c003e0035
:10088000010178000000eb006a00b900b201fb0032
:100890000303b10000804100820078009201fb0058
:1008a0000303b100e98f5100f7ff3600080037005d
:1008b0000000eb00a3c2b300834f510004003a00d4
:1008c0001fb197004200780092b79f008100e800b6
:1008d0008001eb00a3b79f00e2c2b300914f11006b
:1008e0000c003a000ce0a00064415100d14f11000f
:1008f000030032000101780003027800090037008c
:100900001fb29700c402780094b79f00a5b79f005c
:100910008100e80001017800090037006a22b9006f
:100920000482410082007800b201fb000303b100a1
:10093000e98f5100f9ff3600a4b79f00f5ff37009b
:10094000b2407800d2af9f00c3c6b30083cf50003f
:10095000250032000f003c0032c6b30082cf5000a9
:10096000a000320004003c000104e000d00232008c
:100970006b4151000f00370042c6b30082cf5000d8
:10098000170032006541410082cf5000b3003a00a9
:100990001300370032c7b30082cf50001f0032006f
:1009a00007003c006441510082cf50001400320027
:1009b0000241e80082cf5000a8003a00130037003f
:1009c00052c7b30082cf5000ab00320063414100f8
:1009d00082cf5000a1003a00a1d79f000d00370040
:1009e000a1d79f00a6003700010120000c48a300fa
:1009f00001003200010028000c867000d0ff370093
:100a0000a1d79f000c60a0009d003700a1d79f00d8
:100a10000c50a0000c70a00099003700a1d79f00d7
:100a20009fb39700c700780097b79f00b1b79f00aa
:100a30000100e00002003a0089852000b9b79f005c
:100a40003fb197008000eb00010037008100e80013
:100a5000e2c178000304e000fcff3a00c1b79f0048
:100a60002fb597000a00e00005003200cfb59700cf
:100a70008b0f5500020031008a007800c1b79f003b
:100a8000cfb097000004eb00810f5000010036004a
:100a900001045000680666002b003a001100370080
:100aa0003d0090000068a300070032000e017800ae
:100ab000010220000d00780021ff07000000e00087
:100ac00006003a00060037008d0078000002200082
:100ad000d8fe0700e10f4000010032000e07e800d9
:100ae0000804e9000800e000edff3a000084eb0094
:100af000150037003d0090000068a3000900320097
:100b000008007800b000fb00000478000e017800b7
:100b10000d0078000aff07000000e00008003a001e
:100b20000f003700880078003100fb0001047800d6
:100b30008d007800bffe0700e10f40000800320082
:100b40000e07e80006003700acb79f0008067800e3
:100b50003fb49700cfb497005fb59700efb597000b
:100b6000090078008004e9000000e000e1ff3a009d
:100b7000b8b79f00c9b79f00dab79f00ebb79f00d7
:100b80000c0478002fb697000c00e00043023200fe
:100b9000110037003d0090000068a30007003200fc
:100ba0000e017800010220000d007800e4fe07002d
:100bb0000000e00006003a00060037008d007800d3
:100bc000000220009bfe0700e10f40000100320000
:100bd0000e07e8000804e9000800e000edff3a0015
:100be0002e0237009fb297004504780095b79f000a
:100bf000cfc4de00614db9000802be000a03be008a
:100c00004822de00c828dd0004827000a4d79f00bf
:100c10000c48a300090032000404e0000700320081
:100c2000e14f420005003200b4d79f00c8d79f00b3
:100c300022002000c2b79f0003003700b8d79f00f2
:100c400013002000c3b79f0024fd2f000f024200b5
:100c50000402e800b4b79f0081ff3700a1d79f00ce
:100c600025fd2f0085824700b5b79f0016002000a4
:100c7000c6b79f007aff3700a1d79f000c0cb300c6
:100c80008c007800010cb20032003a000c00e00049
:100c900005003d009fb097004105be004104be0025
:100ca00091b79f00080037000c48a3000b003200ea
:100cb0001fb297004401be0094b79f000204be001b
:100cc0004fcdde008a057800b8b79f00c9b79f00f6
:100cd000dab79f00ebb79f00090037009fb4970079
:100ce000c900780099b79f00610ab900612bb9006b
:100cf000b4b79f00c5b79f00d6b79f00e7b79f0066
:100d00003fb49700cfb497005fb59700efb5970059
:100d1000e00f5400e08f5c00e00f5d00e08f5d00ad
:100d200022003d003c00b3006022b8006033b800f0
:100d30000804520089845a000a055b008b855b0019
:100d4000b8b79f00c9b79f00dab79f00ebb79f0005
:100d5000160037000c00e00004003d001fb49700af
:100d60004803be004802be00050037000c48a3003f
:100d7000050032001fb497004802be006033b8007f
:100d800098b79f00050037009fb49700c90078000e
:100d900099b79f00610ab8006033b800b4b79f00ec
:100da000c5b79f00d6b79f00e7b79f00afb29700c7
:100db0000500e0000d003a0016002000a6b79f00d5
:100dc0003fb49700cfb497005fb59700efb5970099
:100dd000e00f5400e08f5c00e00f5d00e08f5d00ed
:100de000020032008004eb00a9b79f000c057800d8
:100df0000a0cb2008ab79f0001042000810f550041
:100e00003400320003003c000a00e0000800320019
:100e100048003700010820008fb59700818f5500ea
:100e200014003200010c2000818f550041003a006f
:100e30008286200011c0b3003202be003203be0021
:100e40003fb49700cfb497005fb59700efb5970018
:100e50000440e10005c8e10006d0e10007d8e10048
:100e6000330039008140e800f4cf5000f2ff3a002f
:100e70002f00370011c0b30004012000050020003e
:100e80006033b8003fb49700cfb497005fb59700c8
:100e9000efb597000440e10005c8e10006d0e1008d
:100ea00007d8e10022003900490020000402d000e8
:100eb0008582d2000683d2008783d2008904e900ac
:100ec000faff3a008140e800f0cf5000edff3a0011
:100ed0001700370011c0b300840020000500200077
:100ee0006033b8003fb49700cfb497005fb5970068
:100ef000efb597000440e10005c8e10006d0e1002d
:100f000007d8e1000a003900390020000402d000af
:100f10008582d2000683d2008783d2008904e9004b
:100f2000faff3a008140e800f5cf5000edff3a00ab
:100f3000a1d79f002fd597008a00fb00afb597007f
:100f40008b8f500002003d00abd79f00040037009c
:100f50002fb19700810f510001003d00a1b79f0004
:100f60000000e00003003200e300660001003200f0
:100f70000000e9000ce8a30006003200afb19700c2
:100f8000830f5000020034000300500001003700be
:100f90000000eb002fd297008400fb008002eb00e2
:100fa000f5af9f00810f5000020034008100500017
:100fb000f1af9f000c28a3003c00320061016600e5
:100fc0000c18a3000f0032003d0090000068a30041
:100fd00006003200b10220000200e00001003200f1
:100fe0008180e8000e0178000d003700b00220007b
:100ff0000200e000010032000080e8008d0078006f
:101000000e0037000200e000100032003d009000aa
:101010000068a300070032000e01780001022000e2
:101020000d007800c6fd07000000e00006003a0051
:10103000060037008d007800000220007dfd0700cb
:10104000e10f4000010032000e07e8007fab97007f
:101050000600e00052003200060478003d009000d7
:101060000068a300070032000e0178000103200091
:101070000d007800b2fd07000000e00006003a0015
:10108000060037008d0078000003200069fd07008e
:10109000e10f4000010032000e07e8000804e900fb
:1010a000eeff3a00f8af9f003d003700ffab97001e
:1010b0000700e000160032000c38a30014003a00cc
:1010c000070478003d0090000068a300070032008c
:1010d0000e017800010220000d00780098fd070045
:1010e0000000e00006003a00060037008d0078009e
:1010f000000220004ffd0700e10f40000100320018
:101100000e07e8000804e900eeff3a00f8af9f0080
:10111000610166000c18a3000f0032003d00900032
:101120000068a30006003200b10220000200e000c7
:10113000010032008180e8000e0178000d003700c8
:10114000b00220000200e000010032000080e80050
:101150008d0078000e0037000200e0001000320021
:101160003d0090000068a300070032000e017800e7
:10117000010220000d00780071fd07000000e00072
:1011800006003a00060037008d00780000022000bb
:1011900028fd0700e10f4000010032000e07e800c3
:1011a0002fb497000800e900c204dd00c9af9f001a
:1011b0006301b90002057800baaf9f004300dd006b
:1011c0000186200081004000e1af9f0098003700b9
:1011d000afb597008b05e900abb79f000004200076
:1011e0008fb09700808f50006800320003003c00f1
:1011f0000100e00008003200730037000008200002
:101200000fb19700800f51004c003200000c2000fd
:10121000800f51006c003a000c00e0001e003d0001
:10122000efa997003304be002305be000802be00ec
:101230000a03be003fb09700cfb097005fb19700a0
:10124000efb1970091010700a0d79f000000fb00bd
:10125000cf80de006109b9000802be000a03be00ab
:10126000f30107003fb29700cfb297005fb397003a
:10127000efb397000002520081825a0002035b0024
:1012800083835b00b4b79f00c5b79f00d6b79f00ac
:10129000e7b79f00250037000c48a3001a00320072
:1012a0003fb29700cfb297006fab97003604be00f5
:1012b0002605be000801be000400be00f4b79f0072
:1012c00085bf9f00c2000700a0d79f000000fb0061
:1012d000cf80de000801be00cd0007007fb297007e
:1012e0008fba97000002520081825a000404be00a7
:1012f0006055b800b8b79f00c9b79f00dab79f0024
:10130000ebb79f0009003700efac97001901780098
:101310003fb59700110009000285d800a200200007
:10132000110009000280d800a1d79f00afd5970017
:101330000b43b000abd79f00230037007084200020
:101340000c58a30001003200608320003fb29700d8
:10135000cfb297005fb39700efb39700cfa8970085
:101360008100e900050033008703d1000683d30024
:101370008582d3000482d300f9ff37006f02620038
:1013800060427a00a4d79f000f0037003fb097005b
:10139000cfb097005fb19700efb197003faa9700d9
:1013a0000402e900050033008301d1000281d3006b
:1013b0008180d3000080d300f9ff370067406000d0
:1013c0000043b000a0d79f00bd009000afd29700af
:1013d0000500fb000168a300070032000e01780041
:1013e000800078000d007800d5fc07000000e000c8
:1013f00005003a00050037008d0078008dfc0700dd
:10140000e10f4000010032000e07e8004fab9700eb
:1014100064035300c6af9f00bfab9700e383530044
:10142000b7af9f006fac970068045400e8af9f000f
:10143000afb497000900e00065ff3a000c38a30044
:10144000160032007fad97000a00e0001300340060
:101450000a0478003d0090000068a30007003200f5
:101460000e017800010220000d007800b4fc070096
:101470000000e00006003a00060037008d0078000a
:10148000000220006bfc0700e10f40000100320069
:101490000e07e8000804e900eeff3a00dfad970010
:1014a0001b407800a0d79f000004e000b7fc3a0082
:1014b0000e0078004f0778004f06be004f05be00b3
:1014c0004f04be002f02b100000006000200fa0027
:1014d000889fbe00a0ff9f000104780038009000a4
:1014e0000068a30033003a00e200600005003a0003
:1014f0000003b30030049800110498000080eb0052
:101500002e003700d80490000900e00006003a00e1
:1015100012002000e6805700480090000efc0700f3
:101520001904980023003700a80090000100e00093
:1015300008003a007198200021049800010c7800fe
:101540002100200051049800110498000030a000f0
:101550003004980018019000a80090004800900006
:10156000fdfb0700280090008080eb00110498002c
:10157000aff8970001487800000ce8002ff89700ba
:10158000ea4f50000b003a00380090000088a3009a
:101590000800320018019000a80090004800900058
:1015a000edfb07000000eb0010049800a80090007d
:1015b000010c7800aff897000100fb004f04be005b
:1015c0000080fa000000060000c0da0000000600fb
:1015d0006022b800060220000000d0008180d20006
:1015e0000482d2008582d2000000a00002025200d4
:1015f00083825a00030031000202420083824a00c3
:101600000000a1000603e900f3ff3a000000060015
:10161000020ab900001bb9000200b80081004200b4
:101620008100430000000600889fbe008a9fbe0024
:1016300030044200b0844a0030054b0090854b00d6
:101640006000b1000898be000a90be000440e100ae
:1016500005c8e10006d0e10007d8e1000200310032
:10166000680040001008e8004f05be004f04be00af
:1016700000000600889fbe008a9fbe003004be00a6
:101680002005be000418540005985c0006185d0093
:1016900007985d00110020000440e10005c8e1004a
:1016a00006d0e10007d8e100010039008000eb001e
:1016b000108810004f05be004f04be000000060059
:1016c0001200fa00889fbe008a9fbe008c9fbe0059
:1016d000e0b79f00f1b79f0082bf9f0093bf9f00bc
:1016e0000605be000404be000000eb00d0b79f005a
:1016f000c0b79f00b0b79f00a0b79f0090b79f00f2
:101700000006eb005fb19700cfb097008201410067
:101710003fb097000200e00004003d0037000700e2
:101720007e805700c0ff070003003700330007002a
:101730007e805700cfff0700dfb697000d00e00066
:101740000c0035006fb29700ffb297000fbb9700f7
:101750009fbb970010002000010020006011b8001e
:10176000000272008182720002037300838373009f
:101770001b0007000c06e80001042000810f560042
:10178000e0ff3a000d00e00004003d000802be004a
:101790000a03be007e805700a3ff07005fa89700e2
:1017a0000000e00005003a001fb29700afb29700ba
:1017b0003fb39700cfb39700090007006fb09700c1
:1017c000ffb097000fb997009fb997004f06be0072
:1017d0004f05be004f04be000080fa000000060066
:1017e0000100070000000600a4b79f00b5b79f00e6
:1017f000c6b79f00d7b79f00000006004f09de0064
:1018000082817100b3b79f004f01de0081804000ec
:1018100082807000a1b79f008fb097004f09de0053
:10182000000040000200700090b79f007fa8970062
:101830004f01de00818040008280700081b79f00f0
:101840000d0007004f3ade00000040000400700069
:10185000f0af9f00080007000402420085824a00a2
:1018600006034b0087834b00dfff07000802be0022
:101870000a03be00000006002fb29700bfb2970017
:101880004fb39700dfb3970000000600881f780071
:1018900018002000881f780089ff07008f87e90063
:1018a0004f04780000000600801feb0084ff070053
:1018b0008f87e90000000600889fbe008a9fbe0057
:1018c000e00f5000e08f5800e00f5900e08f590002
:1018d0000c003d006044b8006055b80000005400a2
:1018e00081805c0002015d0083815d0018002000a2
:1018f0001500070008003d00180007000004eb0079
:10190000050037000004eb000f00070002003d0057
:101910001200070018002000dcff07000800e000ac
:10192000060032006022b8006033b80000005200a8
:1019300081805a0002015b0083815b004f05be007d
:101940004f04be0000000600e00f5200e08f5a0076
:10195000e00f5b00e08f5b00000006006044b80011
:101960006055b8000402540085825c0006035d00e7
:1019700087835d0000000600889fbe008a9fbe002e
:101980008c1f7800e00f5000e08f5800e00f5900e6
:10199000e08f59000d003d006044b8006055b8006c
:1019a0000000540081805c0002015d0083815d00c5
:1019b0001c0020000820e10009a8e1000ab0e100b5
:1019c0000bb8e1000d003d00080037000006eb00f9
:1019d000e00f5200e08f5a00e00f5b00e08f5b00e9
:1019e00006003d006044b8006055b8000402540091
:1019f00085825c0006035d0087835d00aaff070007
:101a00000c00e000060032006022b8006033b8002d
:101a10000000520081805a0002015b0083815b005c
:101a20004f0678004f05be004f04be0000000600c0
:101a3000889fbe008a9fbe008c1f78000006eb00c6
:101a4000e00f5000e08f5800e00f5900e08f590080
:101a500007003d006044b8006055b8000000540025
:101a600081805c0002015d0083815d001c0020001c
:101a7000e00f5200e08f5a00e00f5b00e08f5b0048
:101a800007003d006044b8006055b80004025400ef
:101a900085825c0006035d0087835d000c00a20068
:101aa0000c0007000c00e000060032006022b800c5
:101ab0006033b8000000520081805a0002015b00d0
:101ac00083815b004f0678004f05be004f04be00c7
:101ad00000000600889fbe008a9fbe008c9fbe004b
:101ae0000404b8000506b8008904460060854e006d
:101af0000606b8000a054600e0854e000706b80055
:101b00008b054600040eb800890446000a854e0085
:101b1000e0854d00050eb8000a0546008b854e0095
:101b2000060eb8008b0546000416b8000a054600ec
:101b30008b854e000516b8008b054600041eb800c4
:101b40008b0546000800be000a01be004f06be001d
:0c1b50004f05be004f04be000000060060
:020000040000fa
:101b5c0025300000325800002000000084030000f3
:020000040000fa
:101b6c00c802a900c822a900c062a900c462a900c9
:101b7c00c042a900c442a80000fe2f0062358000bc
:101b8c00820060003100b30061358800c006b600e9
:101b9c00b000b30000368800f10f2e000036800034
:101bac008080600000a020000100700000368800da
:101bbc006382a9006362a9006342a9006322a900a1
:101bcc006302a80062e2a90062c2a90062a2a80096
:101bdc0010138000c001b300101388001013800094
:101bec003000b300101388006422ef0061e2a800fb
:101bfc0000f4210001002000090807000000060085
:101c0c000000fa00889fbe008a1f78005fb2970020
:101c1c008fec970008c2b30088cf540004003e003c
:101c2c0018c0b3000904e000010032000944780038
:101c3c00f043b200c442a9001902200049138800e5
:101c4c006002ab00feff3200491380000080fb00f5
:101c5c00401388006002ab00feff3200401380008e
:101c6c00c442a800e143b2000104a000c442a90090
:101c7c0020022000401388006002ab00feff3200ff
:101c8c00401380000180fb00401388006002ab0011
:101c9c00feff320040138000c442a80002c1e900dc
:101cac006341610001003a0012c0b300c442a900b4
:101cbc0030022000401388006002ab00feff3200af
:101ccc00401380000281fb00421388006002ab00cd
:101cdc00feff320040138000c442a8006780610000
:101cec004400dd00e7c1610080c17100c442a9005d
:101cfc0040022000401388006002ab00feff32005f
:101d0c00401380008381fb00431388006002ab000a
:101d1c00feff320040138000c442a800d0c7b300bd
:101d2c0080cf52000100360080427800c442a900e6
:101d3c0050022000401388006002ab00feff32000e
:101d4c00401380008582fb00451388006002ab00c5
:101d5c00feff320040138000c442a800c442a90018
:101d6c0060022000401388006002ab00feff3200ce
:101d7c0040138000f0002000401388006002ab008c
:101d8c00feff320040138000c442a800c442a900e8
:101d9c00a0022000401388006002ab00feff32005e
:101dac00401380001680fb00401388006002ab00db
:101dbc00feff320040138000164090000080fb00b4
:101dcc00401388006002ab00feff3200401380001d
:101ddc00264090000080fb00401388006002ab009e
:101dec00feff320040138000364090000080fb0064
:101dfc00401388006002ab00feff320040138000ed
:101e0c00464090000080fb00401388006002ab004d
:101e1c00feff320040138000c442a800c442a90057
:101e2c00b0022000401388006002ab00feff3200bd
:101e3c00401380001780fb00401388006002ab0049
:101e4c00feff320040138000174090000080fb0022
:101e5c00401388006002ab00feff3200401380008c
:101e6c00274090000080fb00401388006002ab000c
:101e7c00feff320040138000374090000080fb00d2
:101e8c00401388006002ab00feff3200401380005c
:101e9c00474090000080fb00401388006002ab00bc
:101eac00feff320040138000c442a800c442a900c7
:101ebc00c0022000401388006002ab00feff32001d
:101ecc00401380002ff097000080fb004013880027
:101edc006002ab00feff320040138000c442a80039
:101eec00c442a900d0022000401388006002ab005d
:101efc00feff3200401380000ff097000080fb00c3
:101f0c00401388006002ab00feff320040138000db
:101f1c00c442a800c442a900e0022000401388007b
:101f2c006002ab00feff3200401380006fe89700a8
:101f3c000080fb00401388006002ab00feff320003
:101f4c0040138000c442a800c442a900f002200043
:101f5c00401388006002ab00feff3200401380008b
:101f6c004fe897000080fb00401388006002ab0034
:101f7c00feff320040138000c442a800c442a900f6
:101f8c0000032000401388006002ab00feff32000b
:101f9c00401380001480fb00401388006002ab00eb
:101fac00feff320040138000144090000080fb00c4
:101fbc00401388006002ab00feff3200401380002b
:101fcc00244090000080fb00401388006002ab00ae
:101fdc00feff320040138000344090000080fb0074
:101fec00401388006002ab00feff320040138000fb
:101ffc00444090000080fb00401388006002ab005e
:10200c00feff320040138000c442a800c442a90065
:10201c0010032000401388006002ab00feff32006a
:10202c00401380000880fb00401388006002ab0066
:10203c00feff320042138000c442a800c442a90033
:10204c0022032000421388006002ab00feff320026
:10205c00421380008180fb000001eb000118a300fb
:10206c000100320000017800421388006002ab00ce
:10207c00feff320042138000c442a800c442a900f3
:10208c0032032000421388006002ab00feff3200d6
:10209c00421380000001eb000128a3000100320074
:1020ac0000017800421388006002ab00feff320092
:1020bc0042138000c442a800c442a900420320007d
:1020cc00421388006002ab00feff32004213800016
:1020dc000001eb000138a300010032000001780080
:1020ec00421388006002ab00feff320042138000f6
:1020fc00c442a800c442a900520320004213880025
:10210c006002ab00feff3200421380000001eb00c6
:10211c000148a3000100320000017800421388003e
:10212c006002ab00feff320042138000c442a800e4
:10213c00c442a90062032000421388006002ab0075
:10214c00feff3200421380000158a30001003a0048
:10215c000000eb00401388006002ab00feff320071
:10216c0040138000c442a800c442a9000002200011
:10217c00401388006002ab00feff32004013800069
:10218c0070012000401388006002ab00feff32009b
:10219c0040138000c442a8000077210001002000f9
:1021ac009f060700c462a9004f0578004f04be00cb
:1021bc000080fa00000006002600fa00889fbe008e
:1021cc008a1f78000000eb008040eb00ea415000d1
:1021dc00e1cf510018003600f04f500016003200cd
:1021ec00c442a9007f016000421388006002ab006a
:1021fc00feff3200421380000181fb0044fd2f00e2
:10220c000f024200e44179008381fb0043138800f4
:10221c006002ab00feff32004313800003427800e3
:10222c0045fd2f008f82420084727900c442a800c1
:10223c008140e80045003700c442a9007f016000de
:10224c00421388006002ab00feff32004213800094
:10225c000181fb0045fd2f008f824200e541790092
:10226c008381fb00431388006002ab00feff320049
:10227c00431380008342780044fd2f000f0242007c
:10228c00057279008140e8000181fb00e44179008e
:10229c008381fb00431388006002ab00feff320019
:1022ac00431380008342780044fd2f000f0242004c
:1022bc00057279008140e8000181fb00e44179005e
:1022cc008381fb00431388006002ab00feff3200e9
:1022dc00431380008342780044fd2f000f0242001c
:1022ec00057279008140e8000181fb00e44179002e
:1022fc008381fb00431388006002ab00feff3200b9
:10230c00431380008342780044fd2f000f024200eb
:10231c00057279008140e8000181fb00e4417900fd
:10232c008381fb00431388006002ab00feff320088
:10233c00431380008342780044fd2f000f024200bb
:10234c00057279008140e800c442a8000000e80052
:10235c00f80f50009dff3a00c442a9003000200045
:10236c00401388006002ab00feff32004013800077
:10237c007ff097000080fb00401388006002ab00e8
:10238c00feff320040138000f0f79f00c442a8000b
:10239c00c442a90040002000401388006002ab003a
:1023ac00feff3200401380000ff897000080fb0006
:1023bc00401388006002ab00feff32004013800027
:1023cc0080ff9f00c442a80068855700e9da280006
:1023dc0038fd2f000f0444005880fb00801f78004c
:1023ec00891f780089f80700e48757000804e80083
:1023fc001880fb00801f7800891f780083f8070085
:10240c00e48757000800e8001080fb00801f78006c
:10241c00891f78007df80700e48757000880e800e2
:10242c001080fb00801f7800891f780077f8070068
:10243c00e4875700630044001080fb00801f780085
:10244c00891f780071f80700e48757006400440086
:10245c001080fb00801f7800891f78006bf8070044
:10246c00e4875700650044001080fb00801f780053
:10247c00891f780065f80700e48757006600440060
:10248c001080fb00801f7800891f78005ff8070020
:10249c00e4875700670044001080fb00801f780021
:1024ac00891f780059f80700e48757006804440036
:1024bc001880fb00801f7800891f780053f80700f4
:1024cc00e48757008a0f5400c8ff3a00a000200090
:1024dc004cf807004f0578004f04be000080fa004e
:1024ec0000000600c442a9006822ef006002ab00a5
:1024fc00feff3200401380006822ef006002ab0048
:10250c00feff320040138000c442a8000008a30064
:10251c000d003a000004a000c442a90001022000f2
:10252c00411388006002ab00feff320041138000b3
:10253c000080fb00401388006002ab00feff3200fd
:10254c0040138000c442a80000000600c442a90049
:10255c006822ef006002ab00feff320040138000e7
:10256c006822ef006002ab00feff320040138000d7
:10257c00c442a8000008a3000d0032000004a10012
:10258c00c442a90001022000411388006002ab0084
:10259c00feff3200411380000080fb0040138800d6
:1025ac006002ab00feff320040138000c442a80062
:1025bc000000060050168000640060000000e90076
:1025cc004f00de0000000600c442a900f00f2000fe
:1025dc00401388006002ab00feff32004013800005
:1025ec00c442a8004600de00610060000000060046
:1025fc00c442a900f00f2000401388006002ab0019
:10260c00feff320040138000c442a8004500de00eb
:10261c006100600000000600c442a900f00f200019
:10262c00401388006002ab00feff320040138000b4
:10263c00c442a8004400de006100600000000600f7
:10264c00c442a900f00f2000401388006002ab00c8
:10265c00feff320040138000c442a8000003b20009
:10266c000000ea004f00de0000000600c442a90092
:10267c00a1022000411388006002ab00feff320073
:10268c00411380009080fb00411388006002ab0076
:10269c00feff320041138000800078005181fb0066
:1026ac00421388006002ab00feff32004213800030
:1026bc000082e8001481fb00421388006002ab002a
:1026cc00feff320042138000e30140001381fb0047
:1026dc00421388006002ab00feff32004213800000
:1026ec00640140009282fb00451388006002ab003d
:1026fc00feff320045138000c442a800c442a9006a
:10270c0005032000451388006002ab00feff320079
:10271c00451380001080fb00401388006002ab0062
:10272c00feff3200401380001180fb004013880034
:10273c006002ab00feff3200401380001480fb00ef
:10274c00401388006002ab00feff32004013800093
:10275c001380fb00401388006002ab00feff3200c8
:10276c00401380001280fb00401388006002ab0015
:10277c00feff320040138000c442a8000000060097
:10278c00c962a900cd62a900c922a900c882a9000a
:10279c00cc82a800c8c2a90000fe2f0032368000ef
:1027ac00820060007100b30031368800c942a80075
:1027bc00a806b600a000b30040358800f00f2e002c
:1027cc00c806b60000b0a000403688004382a900bd
:1027dc004362a9004342a9004322a8004302a90076
:1027ec0042c2a80042e2a90042a2a8001012800036
:1027fc00c001b30010128800101280003000b3002a
:10280c00101288004422ef0041e2a80000000600ec
:10281c0041e2a9004362a8004342a8004302a80079
:10282c0042c2a90000fe2f00a806b600d000b300db
:10283c004035880041e2a8000000060041e2a900f2
:10284c004362a9004342a9004302a90042c2a80066
:10285c0000fe2f00a806b600a000b300403588008b
:10286c0041e2a80000000600e9ff0700cd62a800c5
:10287c00c000200001002000e90407002608e20047
:10288c0013003a00cd02a8004822ef004002ab0032
:10289c00feff3200401280004822ef004002ab00e5
:1028ac00feff3200401280008000eb00d24080001e
:1028bc00e34080000201400083814800d240880040
:1028cc00e3408800100020003041880018003700d9
:1028dc00cd02a9004822ef004002ab00feff3200ff
:1028ec00401280008000eb001241800023418000e8
:1028fc000201400083814800124188002341880076
:10290c004822ef004002ab00feff32004012800074
:10291c008000eb00f2408000034180000201400087
:10292c0083814800f2408800034188002628ef008c
:10293c00cd62a900c1ff070030408000e1022000f9
:10294c00810f50001500360010418000214180009d
:10295c0090408800a1408800d0408000e140800079
:10296c00f24080000341800000005100818059003a
:10297c00b0408800c14088002228ef002428ef00d6
:10298c000628ef001e28ef002028ef001a28ef0081
:10299c001c28ef0010c0b300030037000000e80053
:1029ac00304088000040eb00000006000080eb0087
:1029bc00601988000016880040168800c9e2a8003b
:1029cc00f10f2e00003480008080600000f02000a9
:1029dc0001007000003488008220a800700580007f
:1029ec000000a1006000b300700588008680a9007b
:1029fc009680a800c082a900c9c2a900cdc2a800b7
:102a0c000040fe001000200040418800000006003d
:102a1c008460a900004006000421ef000021ef00b3
:102a2c0000c42900100888000421a90005a1a900f0
:102a3c00210580000000270001007000200588009f
:102a4c008460a9009460a80005e1a90000000600bc
:102a5c001021ef001221ef000a21ef000621ef00f8
:102a6c000080eb0070088800600888003105800049
:102a7c000000270001007000300588004005800030
:102a8c007000b300400588001061a800000006002b
:102a9c000821ef000621ef0011e1a800000006005c
:102aac0032088000400880008000eb00c000dd0090
:102abc000000200000004100e08048004e09dd00cd
:102acc004200de0000007100c208de0000000600bb
:102adc0011e1a90032088000400880008000eb0062
:102aec00c000dd000000200000004100e080480034
:102afc004e09dd004200de0000007100c208de005d
:102b0c000000060011e1a9000000060032c8bf0059
:102b1c00674060000000060070408000814080002b
:102b2c00000006000e28ef001028ef000000060041
:102b3c00a141800001004000d00888000000060080
:102b4c0000a0fe003600f800849fbe00869fbe00e9
:102b5c00704080008140800061004000e0804800af
:102b6c0070408800814088003fff07000004e000af
:102b7c000200320010c0b3000ce8b7008760a90057
:102b8c004f03be004f02be003600f9000080fe006d
:102b9c00004006000041eb000c48e2000700320048
:102bac0092408000a34080000288be00b2408000aa
:102bbc00c34080008288be0012c0b300024078007f
:102bcc0000000600889fbe008a1f78008c9fbe0004
:102bdc008004780001057800218320009140780062
:102bec00f88060000040eb00e88f500014003a00c1
:102bfc0007ff0700cd62a800c000200001002000e4
:102c0c00070407004822ef004002ab00feff320031
:102c1c004c128000cfe6de004822ef004002ab00f1
:102c2c00feff320048128000cd62a90003ff0700ae
:102c3c008c8cbe00cfc4de00088dbe0010c0b3006b
:102c4c004f06be004f0578004f04be000000060082
:102c5c001421ef000e28ef001028ef000228ef00df
:102c6c000428ef000628ef000828ef000a28ef00e0
:102c7c001fe1a80010c0b30000e8b7000000060078
:102c8c001e21ef001421ef0000c42900d008880099
:102c9c00810580000000270001007000800588007d
:102cac008760a9009760a800f0fc2f001e21b600d9
:102cbc003288ab0004003200a0292000a04188001b
:102ccc00d0088800e2ff0700000006000068ef0053
:102cdc001fe1a9000228ef000428ef000628ef00ee
:102cec000828ef000a28ef000c68ef00000006002f
:102cfc0000c8bf0000000600881f78007844600000
:102d0c000848a30008003200f9ff07000004e000a7
:102d1c0009003a00a0292000a0418800d0088800b2
:102d2c00cbff070004003700f1ff07000004e000b0
:102d3c0001003200e5ff070070ceb30021832000b4
:102d4c009140780000c06000084470008840780012
:102d5c0020832000014878004f0478000000060012
:102d6c00881f780000047800e1ff07009680a90016
:102d7c000004e000010032009760a900cc82a90099
:102d8c000870a000481288004002ab00feff320021
:102d9c00411280004822ef004002ab00feff3200df
:102dac0041128000cc82a8009680a8000004e000ac
:102dbc00010032009760a800010078004f047800f1
:102dcc0000000600889fbe000004780029832000c4
:102ddc00994478008984fb000908a3003000320074
:102dec00b0032000deff0700004c7800c003200079
:102dfc00dbff070010449800d0032000d8ff070029
:102e0c0020449800e0032000d5ff070030449800d0
:102e1c00f0032000d2ff070040449800000420007b
:102e2c00cfff0700504498000918a300230032007c
:102e3c0030042000caff07006044980040042000c2
:102e4c00c7ff07007044980050042000c4ff07001f
:102e5c00004c980060042000c1ff0700104c980043
:102e6c0070042000beff0700204c98008004200056
:102e7c00bbff0700304c98000928a3001600320055
:102e8c0010042000b6ff0700404c980020042000de
:102e9c00b3ff0700504c98004f04be000000060022
:102eac000040eb00004c780010449800204498003f
:102ebc003044980040449800daff37000040eb00a3
:102ecc006044980070449800004c9800104c980096
:102edc00204c9800e7ff37000040eb00404c980076
:102eec00ecff3700889fbe000004be0080ff070087
:102efc009680a9000004e000010032009760a90050
:102f0c00cc82a900481288004002ab00feff3200c0
:102f1c0041128000491288004002ab00feff3200d3
:102f2c0041128000cc82a8009680a8000004e0002a
:102f3c00010032009760a8004f04be00000006009c
:102f4c00c006200086ff070080007800710cb200dc
:102f5c00c0062000e3ff070000000600c0062000aa
:102f6c007fff0700800078008103b300c0062000bb
:102f7c00dcff070000000600c006200078ff0700f9
:102f8c0080007800810fb200c0062000d5ff07003a
:102f9c0000000600c006200071ff070080007800ca
:102fac007100b300c0062000ceff07000000060031
:102fbc00889fbe00e74460000984fb000808a3005a
:102fcc00040032003208ab0005003a00dcff0700b9
:102fdc00030037003208ab0001003200dfff0700ae
:102fec000818a300040032003228ab0005003a0098
:102ffc00e1ff0700030037003228ab00010032006c
:10300c00e4ff070080cfb3002183200091407800bb
:10301c0000c0600080c474008940780020832000c8
:10302c00014878004f04be00000006008000eb0051
:10303c00a0062000abff070011002000b006200006
:10304c00a8ff070000000600881f780000a82100d8
:10305c0061002000f202070001042000000720009c
:10306c00a0ff0700500720003dff0700f20f5000a3
:10307c0002003200c482a9000e003700ebff0700eb
:10308c0028832000184478000884fb000808a3005b
:10309c0002003200aaff070001003700afff070053
:1030ac000818a30002003200b3ff0700010037002c
:1030bc00b8ff07004f04780000000600f08f2f00c7
:1030cc004427b6000080eb006019880000168800c9
:1030dc0040168800c082a900c482a900c9c2a900f8
:1030ec00cdc2a900c902a900cd02a900a4fd070008
:1030fc00d5ff070000f4210001002000c8020700e2
:10310c00000006003600f800809fbe00829fbe00c3
:10311c00849fbe00869fbe003400f8000000200093
:10312c00a001880040418000e10f500005003a00ea
:10313c0011082000b00620006aff0700cc82a8000e
:10314c000000fe008680a9003400f9004f03be0089
:10315c004f02be004f01be004f00be003600f9000a
:10316c00004006001600fa00889fbe008a9fbe0031
:10317c00c462a800c002200001002000a8020700c1
:10318c0043fe07000bfd07000004e000fdff3200ca
:10319c000dfd07000004e000faff3200d4fe07002a
:1031ac00004478000804e000090032003cfe0700ef
:1031bc0002e82300820f5000e08f58000400360014
:1031cc0058fe07002e28ef003028ef002c28ef00c7
:1031dc002ffe0700c462a900009020000500090022
:1031ec000058eb00c442a9001006200040138800d0
:1031fc006002ab00feff3200401380006822ef003b
:10320c006002ab00feff320040138000804078006b
:10321c0002902000004978006822ef006002ab00a9
:10322c00feff320040138000804478001290200092
:10323c00004978006822ef006002ab00feff32000c
:10324c004213800020902000024878006822ef0092
:10325c006002ab00feff3200421380003090200071
:10326c00024878006822ef006002ab00feff3200db
:10327c004213800040902000024878006822ef0042
:10328c006002ab00feff32004013800080417800ea
:10329c005290200000497800c442a800c442a90002
:1032ac0070022000401388006002ab00feff320069
:1032bc004013800000072000401388006002ab0020
:1032cc00feff320040138000c442a800c442a90093
:1032dc00200e2000401388006002ab00feff32007d
:1032ec0040138000c442a80040c3b30080cf5000fc
:1032fc005f013a0080cf51005d013a00019220003d
:10330c001f0009008058eb00094578000904e00013
:10331c0002003d000940780025ff0700fbfd070077
:10332c000004e000030032007e805700a5fe070079
:10333c00030037007e815700060009000019eb00de
:10334c000a04e00002003d00094078006afe070014
:10335c0040c3b30001922000804878008100e8004f
:10336c008048eb00514180008100e8005141880009
:10337c0011498800f1932000804878007b80500030
:10338c00afe09700014878000000e8003fe19700ab
:10339c00024878000000e800cfe097000148780070
:1033ac000000e8005fe19700024878000000e800a8
:1033bc00efe09700014878000000e8007fe19700fb
:1033cc00024878000000e8008fe897000148780078
:1033dc000000e8001fe99700024878000000e800b0
:1033ec00afe89700014878000000e8003fe997003b
:1033fc00024878000000e800cfe897000148780008
:10340c000000e8005fe99700024878000000e8003f
:10341c00efe89700014878000000e8007fe997008a
:10342c00024878000804e000130032006000b80085
:10343c00a0bf9f00b1bf9f0080bf9f0091bf9f00a6
:10344c00f08057006c805700d2fd07000004e000ac
:10345c001b00320020932000ec8057000300090071
:10346c0031587800629320007080570003000900e7
:10347c0030597800120037006000b80080bf9f0000
:10348c0091bf9f00a0bf9f00b1bf9f00ec80570071
:10349c0070805700cbfd07000004e00008003200ec
:1034ac00219320007081570003000900b258780066
:1034bc0060932000ec80570003000900315878001d
:1034cc0022fc0700c442a900000a20004013880017
:1034dc006002ab00feff320040138000009220001f
:1034ec001080fb00401388006002ab00feff32002e
:1034fc0040138000109220001080fb0040138800c5
:10350c006002ab00feff32004013800020922000ce
:10351c001080fb00401388006002ab00feff3200fd
:10352c0040138000309220001080fb004013880074
:10353c006002ab00feff320040138000409220007e
:10354c001080fb00401388006002ab00feff3200cd
:10355c0040138000509220001080fb004013880024
:10356c006002ab00feff320040138000609220002e
:10357c001080fb00401388006002ab00feff32009d
:10358c0040138000709220001080fb0040138800d4
:10359c006002ab00feff32004013800080922000de
:1035ac001080fb00401388006002ab00feff32006d
:1035bc0040138000909220001080fb004013880084
:1035cc006002ab00feff320040138000a09220008e
:1035dc001080fb00401388006002ab00feff32003d
:1035ec0040138000b09220001080fb004013880034
:1035fc006002ab00feff320040138000c09220003e
:10360c001080fb00401388006002ab00feff32000c
:10361c0040138000d09220001080fb0040138800e3
:10362c006002ab00feff320040138000e0922000ed
:10363c001080fb00401388006002ab00feff3200dc
:10364c0040138000f09220001080fb004013880093
:10365c006002ab00feff320040138000009320009c
:10366c001080fb00401388006002ab00feff3200ac
:10367c0040138000109320001080fb004013880042
:10368c006002ab00feff320040138000209320004c
:10369c001080fb00401388006002ab00feff32007c
:1036ac0040138000309320001080fb0040138800f2
:1036bc006002ab00feff32004013800040932000fc
:1036cc001080fb00401388006002ab00feff32004c
:1036dc0040138000509320001080fb0040138800a2
:1036ec006002ab00feff32004013800060932000ac
:1036fc001080fb00401388006002ab00feff32001c
:10370c0040138000709320001080fb004013880051
:10371c006002ab00feff320040138000809320005b
:10372c001080fb00401388006002ab00feff3200eb
:10373c0040138000909320001080fb004013880001
:10374c006002ab00feff320040138000a09320000b
:10375c001080fb00401388006002ab00feff3200bb
:10376c0040138000b09320001080fb0040138800b1
:10377c006002ab00feff320040138000c0932000bb
:10378c001080fb00401388006002ab00feff32008b
:10379c0040138000d09320001080fb004013880061
:1037ac006002ab00feff320040138000e09320006b
:1037bc001080fb00401388006002ab00feff32005b
:1037cc0040138000f09320001080fb004013880011
:1037dc006002ab00feff320040138000c442a80020
:1037ec00affc0700c1352000810f500015003e00d2
:1037fc0041382000008050000804e0000c0032002a
:10380c004200dd001008880005e1a8003a382000cd
:10381c000b0020000140fe00a1fc07008a0f5000a5
:10382c008b8f5800fbff360005e1a900050037001f
:10383c004200dd001008880005e1a8000140fe00f0
:10384c0005e1a900c462a800c0022000010020000c
:10385c00f300070057fb07000004e000fdff3200f7
:10386c0077fb07000004e000faff3200c462a900f5
:10387c00c442a90070022000401388006002ab0013
:10388c00feff320040138000000720004013880028
:10389c006002ab00feff320040138000c442a8005f
:1038ac00c442a900100e2000401388006002ab0037
:1038bc00feff320040138000c442a80009fb070041
:1038cc0083fc070062ea2000000051000804e000bd
:1038dc000f003200d8f32f00000444006cfc0700ea
:1038ec004240dd001008880005e1a8008004eb00d0
:1038fc000140fe006afc0700880f5000898f5800b9
:10390c00fbff390005e1a9007efc0700050037002c
:10391c004200dd001008880005e1a8000140fe000f
:10392c0005e1a9004f05be004f04be000080fa005f
:10393c000000060000a8210061002000b80007006c
:10394c001afc0700ddfd070085f80700c482a800fb
:10395c00c462a900b696200060c0b300801f780036
:10396c0065005300801f78007900400010407800fb
:10397c00801f78006f00430010407800801f780093
:10398c006a00430010407800801f780065004300f7
:10399c0010407800801f78008603780035c6b3008d
:1039ac000042eb008441780052c0b30011c0b30058
:1039bc000440780092f80700c442a900700220006d
:1039cc0040138800ec8757006002ab00feff32000a
:1039dc004013800000072000401388006002ab00f9
:1039ec00feff320040138000c442a800c442a9006c
:1039fc00100e2000401388006002ab00feff320066
:103a0c0040138000c442a800c442a900200e20002c
:103a1c00401388006002ab00feff320040138000b0
:103a2c00c442a800fcfb070009fc070094fc07003b
:083a3c00ccfd0700feff37007e
:020000040000fa
:103a4400660900001e00000002000000e7e7e7002e
:103a5400e7e7e100b6b5b400b3cdb600b5b4b30042
:103a6400a3b6b500b4b32e00b6b5b400b315b60012
:103a7400b5b4b300000900004000000000000000dd
:103a84002a080000080000000000000000080000f0
:103a94002a000000000000003208000004000000ba
:103aa40002000000090001000000000040090000bd
:103ab40026000000020000008509000000850900be
:103ac40009000000000200008709000000870900c7
:103ad4000e020100000000000000000000000000d1
:103ae40006020200000000004009000084090000f2
:103af400060000000000000036080000ca000000b4
:103b040002000000303132003334350036373800db
:103b1400394142004344450046003000313233000d
:103b240034353600373839006162630064656600f5
:103b340000286e00756c6c00290000000100000074
:103b44000000000000000a00000000000000000067
:103b5400006400000000000000000000e803000012
:103b6400000000000000100027000000000000001a
:103b740000a08600010000000000000040420f0089
:103b84000000000000008000969800000000000083
:103b94000000e100f50500000000000000ca9a00e2
:103ba4003b00000000000000e40b54000200000091
:103bb4000000e80076481700000000000010a5008f
:103bc400d4e8000000000000a0724e0018090000b4
:103bd400000040007a10f3005a0000000080c60084
:103be400a47e8d000300000000c16f00f286230054
:103bf400000000008a5d7800456301000000640055
:103c0400a7b3b600e00d000000e889000423c70054
:103c14008a0000008a09000002000000020000007f
:083c240001000000321e8000c7
:020000040000fa
:103c2c00f03fb1000180b10006003500ee03090041
:103c3c0000000000403fb1000180b100fbff3d00df
:103c4c001000b000203fb0000200350000800900d9
:083c5c0000000000000006005a
:020000040000fa
:043c6400000000005c
:020000040000fa
:020000040001f9
:0457f0003fff000077
:020000040000fa
:020000040001f9
:0457f400fffc0000b6
:020000040000fa
:020000040001f9
:0457f8009bff000013
:020000040000fa
:020000040001f9
:0457fc007f3f0000eb
:00000001FF
