:020000040000fa
:080000000002040000000000f2
:020000040000fa
:04000800c80200002a
:020000040000fa
:04000c00c802000026
:020000040000fa
:04001000c802000022
:020000040000fa
:04001400c80200001e
:020000040000fa
:04001800c80200001a
:020000040000fa
:04001c00c802000016
:020000040000fa
:04002000c802000012
:020000040000fa
:04002400c80200000e
:020000040000fa
:04002800c80200000a
:020000040000fa
:04002c00c802000006
:020000040000fa
:04003000c802000002
:020000040000fa
:040034005012000066
:020000040000fa
:04003800c8020000fa
:020000040000fa
:04003c00c8020000f6
:020000040000fa
:04004000c8020000f2
:020000040000fa
:04004400c8020000ee
:020000040000fa
:04004800c8020000ea
:020000040000fa
:04004c00c8020000e6
:020000040000fa
:04005000c8020000e2
:020000040000fa
:04005400c8020000de
:020000040000fa
:04005800c8020000da
:020000040000fa
:04005c00c8020000d6
:020000040000fa
:04006000c8020000d2
:020000040000fa
:04006400c8020000ce
:020000040000fa
:04006800c8020000ca
:020000040000fa
:04006c00c8020000c6
:020000040000fa
:04007000c8020000c2
:020000040000fa
:04007400c8020000be
:020000040000fa
:04007800c8110000ab
:020000040000fa
:04007c00c8020000b6
:020000040000fa
:04008000c8020000b2
:020000040000fa
:04008400c8020000ae
:020000040000fa
:04008800c8020000aa
:020000040000fa
:04008c00c8020000a6
:020000040000fa
:04009000c8020000a2
:020000040000fa
:0400940098130000bd
:020000040000fa
:04009800c80200009a
:020000040000fa
:04009c00c802000096
:020000040000fa
:0400a000c802000092
:020000040000fa
:0400a400c80200008e
:020000040000fa
:0400a800c80200008a
:020000040000fa
:0400ac00c802000086
:020000040000fa
:0400b000c802000082
:020000040000fa
:0400b400c80200007e
:020000040000fa
:0400b800c80200007a
:020000040000fa
:0400bc00c802000076
:020000040000fa
:0400c000c802000072
:020000040000fa
:0400c400c80200006e
:020000040000fa
:0400c800c80200006a
:020000040000fa
:0400cc00c802000066
:020000040000fa
:0400d000c802000062
:020000040000fa
:0400d400c80200005e
:020000040000fa
:0400d800c80200005a
:020000040000fa
:0400dc00c802000056
:020000040000fa
:0400e000c802000052
:020000040000fa
:0400e400c80200004e
:020000040000fa
:0400e800c80200004a
:020000040000fa
:0400ec00c802000046
:020000040000fa
:0400f000c802000042
:020000040000fa
:0400f400c80200003e
:020000040000fa
:0400f800c80200003a
:020000040000fa
:0400fc00c802000036
:020000040000fa
:04010000c802000031
:020000040000fa
:04010400c80200002d
:020000040000fa
:04010800c802000029
:020000040000fa
:04010c00c802000025
:020000040000fa
:04011000c802000021
:020000040000fa
:04011400c80200001d
:020000040000fa
:04011800c802000019
:020000040000fa
:04011c00c802000015
:020000040000fa
:04012000c802000011
:020000040000fa
:04012400c80200000d
:020000040000fa
:04012800c802000009
:020000040000fa
:04012c00c802000005
:020000040000fa
:04013000c802000001
:020000040000fa
:04013400c8020000fd
:020000040000fa
:04013800c8020000f9
:020000040000fa
:04013c00c8020000f5
:020000040000fa
:04014000c8020000f1
:020000040000fa
:04014400c8020000ed
:020000040000fa
:04014800c8020000e9
:020000040000fa
:04014c00c8020000e5
:020000040000fa
:04015000c8020000e1
:020000040000fa
:04015400c8020000dd
:020000040000fa
:04015800c8020000d9
:020000040000fa
:04015c00c8020000d5
:020000040000fa
:04020800c802000028
:020000040000fa
:04020c00c802000024
:020000040000fa
:04021000c802000020
:020000040000fa
:04021400c80200001c
:020000040000fa
:04021800c802000018
:020000040000fa
:04021c00c802000014
:020000040000fa
:04022000c802000010
:020000040000fa
:04022400c80200000c
:020000040000fa
:04022800c802000008
:020000040000fa
:04022c00c802000004
:020000040000fa
:04023000c802000000
:020000040000fa
:04023400c8020000fc
:020000040000fa
:04023800c8020000f8
:020000040000fa
:04023c00c8020000f4
:020000040000fa
:04024000c8020000f0
:020000040000fa
:04024400c8020000ec
:020000040000fa
:04024800c8020000e8
:020000040000fa
:04024c00c8020000e4
:020000040000fa
:04025000c8020000e0
:020000040000fa
:04025400c8020000dc
:020000040000fa
:04025800c8020000d8
:020000040000fa
:04025c00c8020000d4
:020000040000fa
:04026000c8020000d0
:020000040000fa
:04026400c8020000cc
:020000040000fa
:04026800c8020000c8
:020000040000fa
:04026c00c8020000c4
:020000040000fa
:04027000c8020000c0
:020000040000fa
:04027400c8020000bc
:020000040000fa
:04027800c8020000b8
:020000040000fa
:04027c00c8020000b4
:020000040000fa
:04028000c8020000b0
:020000040000fa
:04028400c8020000ac
:020000040000fa
:04028800c8020000a8
:020000040000fa
:04028c00c8020000a4
:020000040000fa
:04029000c8020000a0
:020000040000fa
:04029400c80200009c
:020000040000fa
:04029800c802000098
:020000040000fa
:04029c00c802000094
:020000040000fa
:0402a000c802000090
:020000040000fa
:0402a400c80200008c
:020000040000fa
:0402a800c802000088
:020000040000fa
:0402ac00c802000084
:020000040000fa
:0402b000c802000080
:020000040000fa
:0402b400c80200007c
:020000040000fa
:0402b800c802000078
:020000040000fa
:0402bc00c802000074
:020000040000fa
:0402c000c802000070
:020000040000fa
:0402c400c80200006c
:020000040000fa
:0402c800c802000068
:020000040000fa
:0402cc00c802000064
:020000040000fa
:0402d000c802000060
:020000040000fa
:0402d400c80200005c
:020000040000fa
:0402d800c802000058
:020000040000fa
:0402dc00c802000054
:020000040000fa
:0402e000c802000050
:020000040000fa
:0402e400c80200004c
:020000040000fa
:0402e800c802000048
:020000040000fa
:0402ec00c802000044
:020000040000fa
:0402f000c802000040
:020000040000fa
:0402f400c80200003c
:020000040000fa
:0402f800c802000038
:020000040000fa
:0402fc00c802000034
:020000040000fa
:04030000c80200002f
:020000040000fa
:04030400c80200002b
:020000040000fa
:04030800c802000027
:020000040000fa
:04030c00c802000023
:020000040000fa
:04031000c80200001f
:020000040000fa
:04031400c80200001b
:020000040000fa
:04031800c802000017
:020000040000fa
:04031c00c802000013
:020000040000fa
:04032000c80200000f
:020000040000fa
:04032400c80200000b
:020000040000fa
:04032800c802000007
:020000040000fa
:04032c00c802000003
:020000040000fa
:04033000c8020000ff
:020000040000fa
:04033400c8020000fb
:020000040000fa
:04033800c8020000f7
:020000040000fa
:04033c00c8020000f3
:020000040000fa
:04034000c8020000ef
:020000040000fa
:04034400c8020000eb
:020000040000fa
:04034800c8020000e7
:020000040000fa
:04034c00c8020000e3
:020000040000fa
:04035000c8020000df
:020000040000fa
:04035400c8020000db
:020000040000fa
:04035800c8020000d7
:020000040000fa
:04035c00c8020000d3
:020000040000fa
:10040000ef9020000e7f22000e0188000000000007
:10041000000020000000e000020032000001200087
:100420002002880014000700880007000000e00098
:1004300003003a00e0922100010020000200370092
:100440000000200001002000810f70000100320038
:1004500014000700000020000000e000020032004d
:100460000000020000000000ac18020000000000c4
:100470000040da000000fe004440a9008000200097
:100480000000e0000300320000002000a00188000e
:100490004440a800000006008a1f78008b1f7800e7
:1004a0000000060091018800800478000000eb0045
:1004b0001a003700e284440032a0b4009905ba0063
:1004c000e284440032a0b4009906ba00e2844400f9
:1004d00032a0b4000006eb00476fde00fd07b2005b
:1004e000636ce10003003a00ebff07000000eb0043
:1004f0000a003700606ce10004003a00005deb0088
:100500008b05e900fdff3e00040037006168e10053
:10051000010032000086eb000b00070019c7ba008b
:100520001905ba000e04e00003003a000a00e000da
:10053000e0ff3a0000000600fe07b2009e018800be
:100540008a047800f5ff3700395dba008b05e900b1
:100550000c003200295dba008b05e900080032006a
:100560000c00e00003003a00e284440032a0b40032
:10057000f5ff370019ddba008b05e900faff3a00f4
:100580008904e800e184440032a0b40000000600c1
:100590000040da000000fe000a00fa00e20f5000fe
:1005a0001f003e0060488000e10f5000060032004e
:1005b0008023200045232000232320000423200043
:1005c0000000e00004003a008022200045222000c4
:1005d0002322200004222000060028009403630048
:1005e00002003a0007087800140a730013a8a30059
:1005f00001003a0013a0a0000200780005003700b7
:100600001388a300feff32003102fb00840a780049
:100610000000e9000000e000f9ff3a0008003700a0
:1006200033002000b3bf9f00c0bf9f00d1bf9f0019
:10063000e2bf9f006a8057003f0307006fb9970031
:10064000020078000080fa000000060000000500ab
:10065000e18c2000070037000000fa006881570095
:10066000cfb89700e08c20004e0007000080fa0011
:1006700000000600889fbe0001047800b8009000ca
:100680008084eb000118a3003a00320018019000aa
:100690000198a30002003a000200e00035003a0091
:1006a0000190a0003104980080047800f90fb20096
:1006b0000200e00002003a0028009000000c7800e0
:1006c000ea8f540005003a000178a30003003a00c5
:1006d00088007800d0002000e6ff07001800900096
:1006e000d8009000810f50000b0032000000e8009d
:1006f000100498001800780009487800000ce80001
:1007000011c0b3006090200001487800ea8f5400c7
:1007100018003a000500370088007800094078008a
:10072000c6020700800478001200370038009000ed
:100730000088a3000f00320018019000a80090006c
:100740004800900094ff070098009000810f50002f
:1007500004003200380090000003b3003004980019
:100760008084eb000000eb0010049800280090004b
:10077000000c7800090078004f04be00000006005d
:10078000d0019000028151004240a90003003400d2
:1007900010017800014978000208e80001007800a3
:1007a00000000600f6874700889fbe008a9fbe00b3
:1007b0008c9fbe008e1f780000057800a1b79f00b7
:1007c000020778008004eb0090023700afb097007a
:1007d0008100e800a1b79f0051c2b300814f5000d3
:1007e00003003a00afb097000004eb00110037009f
:1007f000ba0090000000fb000168a300070032006f
:1008000009017800800078000a007800dcff07000a
:100810000000e00005003a007c0237008a00780002
:1008200094ff0700e10f4000780232008904e800dd
:10083000760237000100780031417800d3c2b3005e
:10084000834f51000c00320007003c00edc1510005
:10085000834f51000a003200ebc14100834f510029
:100860000d003a000800370003c3b300834f510066
:1008700009003a00060037000830a000edff3700fd
:100880000800a000ebff37000810a000e9ff3700c8
:100890000820a000e7ff37000818a300010032007d
:1008a0000800a1000838a300010032000820a100c0
:1008b0008200fb000103b100e98f50000c003e00f4
:1008c000000178008000eb006a08b900b201fb006b
:1008d0000303b10080804100020078009201fb0018
:1008e0000303b100e98f5100f7ff3600060037001f
:1008f0008000eb00a3c2b300834f510002003a0016
:10090000ce0078000000e8008005eb00e2c2b300f2
:10091000904f110009003a0008e0a0006441510026
:10092000d04f11000300320000017800010278006e
:1009300006003700ce0578000000e80000017800ce
:10094000090037006a58b90080854100020078002c
:10095000b201fb000303b100e98f5100f9ff36003b
:1009600084007800f5ff370032407800a2b79f007e
:10097000c3c6b300834f5000250032000f003c0077
:1009800032c6b300824f50008800320004003c00a1
:100990000004e000220232006b4151000f003700da
:1009a00042c6b300824f500017003200654141003b
:1009b000824f500094003a001300370032c7b30052
:1009c000824f50001b00320007003c006441510080
:1009d000824f5000100032000241e800824f500068
:1009e00089003a000f00370052c7b300824f500011
:1009f0008a00320063414100824f500082003a0079
:100a0000e0df9f0009003700e0df9f00850037002e
:100a10000840a000d4ff3700e0df9f000860a0007e
:100a200080003700e0df9f000850a0000870a000a1
:100a30007c003700e0df9f004e0078000006780061
:100a40000000e00001003a002c8520000c01780035
:100a50000000eb00010037000000e800e2417800f0
:100a60000304e000fcff3a00800678000b00e00081
:100a7000030032008d8f5500010031008b06780095
:100a80008005eb008d8f5000010036008d855000f1
:100a9000680464002a003a00110037003a00900010
:100aa0000068a3000700320009017800010220005d
:100ab0000a00780032ff07000000e00006003a005c
:100ac000060037008a00780000022000e9fe0700d7
:100ad000e10f4000010032008904e8008b05e900c5
:100ae0000b00e000edff3a008085eb0014003700ba
:100af0003a0090000068a300090032000c00780062
:100b0000b000fb0000067800090178000a007800b8
:100b10001bff07000000e00008003a000800370053
:100b20008c0078003100fb00010678008a00780014
:100b3000d0fe0700e10f4000010032008904e80008
:100b40000d0078008006e9000000e000e8ff3a00b0
:100b50000800e000ad013200110037003a009000bb
:100b60000068a3000700320009017800010220009c
:100b70000a00780002ff07000000e00006003a00cb
:100b8000060037008a00780000022000b9fe070046
:100b9000e10f4000010032008904e8008b05e90004
:100ba0000b00e000edff3a00980137004e0178009d
:100bb000cf91de00c81ade004818dd004812de00c2
:100bc00004027000e4df9f000848a3000800320020
:100bd0000404e00006003200e14f4200040032004d
:100be000f4df9f0082e79f002d0020000200370005
:100bf000f2df9f001d002000e2fd2f000f014100e9
:100c00000206e80099ff3700e0df9f00ecfd2f00af
:100c10000f0646001d00200094ff3700e0df9f0014
:100c2000080cb30008017800020cb20070006400e8
:100c30000200e0000d003a000000e0000200320077
:100c40004e06be00020037004e067800cfe6de00fa
:100c5000e00f5600e08f5e000a003d003800b30050
:100c600060061600e0861e00060037000000e00067
:100c7000020032004e06be00020037004e06780029
:100c80008006eb000b00e00005003a008c85760042
:100c90000bf0a7008b05ea008b05e900cf5dde00b5
:100ca00088017800030cb200e3b79f000004200025
:100cb000808f51002300320003003c000300e0005d
:100cc000080032002d003700000820006fb29700a6
:100cd000800f52000d003200000c2000800f5200e7
:100ce00026003a00a285200010c0b3006401410034
:100cf000b20f5600a28f5e001f0039000040e800ce
:100d0000ea4f5000f9ff3a001b00370010c0b30053
:100d10000201200003002000820f5600838f5e0036
:100d200015003900441add00cc11de008301720089
:100d30004411dd000040e800e84f5000f6ff3a00a3
:100d40000d00370010c0b300820020000300200017
:100d5000820f5600838f5e0007003900431add00c2
:100d6000cd11de00830172004311dd000040e80078
:100d7000eb4f5000f6ff3a00e0df9f006fd997007d
:100d80000200fb008b0f500002003d00ebdf9f00d4
:100d900003003700808f550001003d00800578007a
:100da0000100e00003003200630064000100320033
:100db0008100e90008e8a300050032008b8f500095
:100dc000020034008b805000010037008000eb00ef
:100dd000efd997000300fb000002eb00d4b79f009f
:100de000808f50000200340000805000d0b79f0078
:100df0000828a30040003200610164000818a30025
:100e00000f0032003a0090000068a3000600320094
:100e1000b10220000200e000010032008180e80001
:100e2000090178000d003700b00220000200e00048
:100e3000010032000080e8008a0078000e003700d0
:100e40000200e000100032003a0090000068a300a9
:100e50000700320009017800010220000a00780032
:100e600047fe07000000e00006003a0006003700d9
:100e70008a00780000022000fefd0700e10f40001c
:100e8000010032008904e8005fb097000000e00034
:100e90005a003200bcb79f00cdb79f008006780093
:100ea0003a0090000068a3000700320009017800b2
:100eb000010320000a00780031fe07000000e00076
:100ec00006003a00060037008a0078000003200080
:100ed000e8fd0700e10f4000010032008904e8004e
:100ee0008d06e900eeff3a00ddb79f003fb69700a0
:100ef000cfb6970041003700dfb197000300e00054
:100f00001a0032000838a30018003a00bcb79f004e
:100f1000cdb79f00830678003a0090000068a300d8
:100f20000700320009017800010220000a00780061
:100f300013fe07000000e00006003a00060037003c
:100f40008a00780000022000cafd0700e10f40007f
:100f5000010032008904e8008d06e900eeff3a0046
:100f6000ddb79f003fb69700cfb6970061016400e0
:100f70000818a3000f0032003a0090000068a30098
:100f800006003200b10220000200e0000100320041
:100f90008180e800090178000d003700b0022000d0
:100fa0000200e000010032000080e8008a007800c2
:100fb0000e0037000200e000100032003a009000fe
:100fc0000068a30007003200090178000102200038
:100fd0000a007800eafd07000000e00006003a0081
:100fe000060037008a00780000022000a1fd0700fb
:100ff000e10f4000010032008904e8000b03e90022
:101000006330b90000017800b2b79f004233dd00c1
:10101000a0852000000343008e01780093b79f0055
:1010200008077800060478005c0037008b05e900ab
:10103000000420006fb29700800f52003800320089
:1010400003003c000400e000080032003e003700ce
:1010500000082000efb09700808f50002000320081
:10106000000c2000808f500037003a000e48a3008b
:10107000100032001802be000401be000c00be00c9
:10108000f4b79f0085bf9f00ad000700e0df9f0021
:101090000000fb00cf80de007fb297008fba970080
:1010a0000401be00b60007000006560081865e00ff
:1010b0000700370018017800110009000286d800e7
:1010c000a2002000110009000280d800e1df9f008b
:1010d0006fd997000243b000e2df9f001a0037008b
:1010e000108420000e58a30001003200008320006d
:1010f000a1852000810054000c01be008100e900a0
:10110000030033008301d1000281d300fbff3700cd
:10111000ef006100e0c07800e1df9f000a003700c7
:101120000c00be00bfb197008301e900030033004b
:101130008100d1000080d300fbff370067406000d2
:101140000043b000e0df9f00ba0090006fda970024
:101150000400fb000168a3000700320009017800c9
:10116000800078000a00780085fd07000000e0009c
:1011700005003a00050037008a0078003dfd0700b1
:10118000e10f4000010032008904e8003fb0970001
:1011900063005000b0b79f00640454000b00e000ef
:1011a000a2ff3a000e0478001fb797000838a3008a
:1011b00016003200dfb097000100e0001300340099
:1011c000010478003a0090000068a3000700320094
:1011d00009017800010220000a00780068fd07007c
:1011e0000000e00006003a00060037008a007800a0
:1011f000000220001ffd0700e10f40000100320047
:101200008904e8000804e900eeff3a002fb19700d6
:1012100012407800e0df9f000004e0006bfd3a0020
:10122000090078004f0778004f06be004f05be004a
:101230004f04be006f01b100000006000200fa007a
:10124000889fbe00a0ff9f00010478003800900036
:101250000068a30033003a00e200600005003a0095
:101260000003b30030049800110498000080eb00e4
:101270002e003700d80490000900e00006003a0074
:1012800012002000e680570048009000c2fc0700d2
:101290001904980023003700a80090000100e00026
:1012a00008003a009190200021049800010c780079
:1012b0002100200051049800110498000030a00083
:1012c0003004980018019000a80090004800900099
:1012d000b1fc0700280090008080eb00110498000a
:1012e000aff8970001487800000ce8002ff897004d
:1012f000ea4f50000b003a00380090000088a3002d
:101300000800320018019000a800900048009000ea
:10131000a1fc07000000eb0010049800a80090005a
:10132000010c7800aff897000100fb004f04be00ed
:101330000080fa000000060000c0da00000006008d
:101340006022b800060220000000d0008180d20098
:101350000482d2008582d2000000a0000202520066
:1013600083825a00030031000202420083824a0055
:101370000000a1000603e900f3ff3a0000000600a8
:10138000020ab900001bb9000200b8008100420047
:0813900081004300000006008b
:020000040000fa
:1013980025300000325800002000000084030000bf
:020000040000fa
:1013a800c802a900c822a900c062a900c462a90095
:1013b800c042a900c442a80000fe2f006235800088
:1013c800820060003100b30061358800c006b600b5
:1013d800b000b30000368800f10f2e000036800000
:1013e8008080600000a020000100700000368800a6
:1013f8006382a9006362a9006342a9006322a9006d
:101408006302a80062e2a90062c2a90062a2a80061
:10141800c00120006222b700300020006222b7001d
:101428006422ef0061e2a80000f42100010020001e
:10143800da070700000006000000fa00889fbe00d7
:101448008a1f78005fb297008fec970008c2b3003c
:1014580088cf540004003e0018c0b3000904e0001f
:101468000100320009447800f043b200c442a900e8
:1014780019022000491388006002ab00feff320009
:10148800491380000080fb00401388006002ab0015
:10149800feff320040138000c442a800e143b200be
:1014a8000104a000c442a9002002200040138800c3
:1014b8006002ab00feff3200401380000180fb0099
:1014c800401388006002ab00feff3200401380002a
:1014d800c442a80002c1e9006341610001003a006a
:1014e80012c0b300c442a900300220004013880093
:1014f8006002ab00feff3200401380000281fb0057
:10150800421388006002ab00feff320040138000e7
:10151800c442a800678061004400dd00e7c16100a3
:1015280080c17100c442a900400220004013880015
:101538006002ab00feff3200401380008381fb0095
:10154800431388006002ab00feff320040138000a6
:10155800c442a800d0c7b30080cf520001003600b3
:1015680080427800c442a90050022000401388003d
:101578006002ab00feff3200401380008582fb0052
:10158800451388006002ab00feff32004013800064
:10159800c442a800c442a900600220004013880089
:1015a8006002ab00feff320040138000f000200014
:1015b800401388006002ab00feff32004013800039
:1015c800c442a800c442a900a00220004013880019
:1015d8006002ab00feff3200401380001680fb0063
:1015e800401388006002ab00feff32004013800009
:1015f800164090000080fb00401388006002ab009a
:10160800feff320040138000264090000080fb005f
:10161800401388006002ab00feff320040138000d8
:10162800364090000080fb00401388006002ab0049
:10163800feff320040138000464090000080fb000f
:10164800401388006002ab00feff320040138000a8
:10165800c442a800c442a900b00220004013880078
:101668006002ab00feff3200401380001780fb00d1
:10167800401388006002ab00feff32004013800078
:10168800174090000080fb00401388006002ab0008
:10169800feff320040138000274090000080fb00ce
:1016a800401388006002ab00feff32004013800048
:1016b800374090000080fb00401388006002ab00b8
:1016c800feff320040138000474090000080fb007e
:1016d800401388006002ab00feff32004013800018
:1016e800c442a800c442a900c002200040138800d8
:1016f8006002ab00feff3200401380002ff097001d
:101708000080fb00401388006002ab00feff32003f
:1017180040138000c442a800c442a900d00220009f
:10172800401388006002ab00feff320040138000c7
:101738000ff097000080fb00401388006002ab00a8
:10174800feff320040138000c442a800c442a90032
:10175800e0022000401388006002ab00feff320068
:10176800401380006fe897000080fb00401388005a
:101778006002ab00feff320040138000c442a800a4
:10178800c442a900f0022000401388006002ab00a8
:10179800feff3200401380004fe897000080fb00f6
:1017a800401388006002ab00feff32004013800047
:1017b800c442a800c442a9000003200040138800c6
:1017c8006002ab00feff3200401380001480fb0073
:1017d800401388006002ab00feff32004013800017
:1017e800144090000080fb00401388006002ab00aa
:1017f800feff320040138000244090000080fb0070
:10180800401388006002ab00feff320040138000e6
:10181800344090000080fb00401388006002ab0059
:10182800feff320040138000444090000080fb001f
:10183800401388006002ab00feff320040138000b6
:10184800c442a800c442a900100320004013880025
:101858006002ab00feff3200401380000880fb00ee
:10186800401388006002ab00feff32004213800084
:10187800c442a800c442a9002203200042138800e1
:101888006002ab00feff3200421380008180fb0043
:101898000001eb000118a3000100320000017800ec
:1018a800421388006002ab00feff32004213800042
:1018b800c442a800c442a900320320004213880091
:1018c8006002ab00feff3200421380000001eb0013
:1018d8000128a300010032000001780042138800ab
:1018e8006002ab00feff320042138000c442a80031
:1018f800c442a90042032000421388006002ab00e2
:10190800feff3200421380000001eb000138a30003
:101918000100320000017800421388006002ab0029
:10192800feff320042138000c442a800c442a9004e
:1019380052032000421388006002ab00feff320011
:10194800421380000001eb000148a30001003200af
:1019580000017800421388006002ab00feff3200ed
:1019680042138000c442a800c442a90062032000b8
:10197800421388006002ab00feff32004213800071
:101988000158a30001003a000000eb004013880052
:101998006002ab00feff320040138000c442a80082
:1019a800c442a90000022000401388006002ab0076
:1019b800feff3200401380007001200040138800b1
:1019c8006002ab00feff320040138000c442a80052
:1019d800007721000100200070060700c462a900fa
:1019e8004f0578004f04be000080fa000000060092
:1019f8002600fa00889fbe008a1f78000000eb00ce
:101a08008040eb00ea415000e1cf51001800360059
:101a1800f04f500016003200c442a9007f01600058
:101a2800421388006002ab00feff320042138000c0
:101a38000181fb0044fd2f000f024200e4417900c0
:101a48008381fb00431388006002ab00feff320075
:101a5800431380000342780045fd2f008f82420027
:101a680084727900c442a8008140e800450037002c
:101a7800c442a9007f016000421388006002ab00e5
:101a8800feff3200421380000181fb0045fd2f005c
:101a98008f824200e54179008381fb00431388006f
:101aa8006002ab00feff32004313800083427800df
:101ab80044fd2f000f024200057279008140e800c2
:101ac8000181fb00e44179008381fb004313880016
:101ad8006002ab00feff32004313800083427800af
:101ae80044fd2f000f024200057279008140e80092
:101af8000181fb00e44179008381fb0043138800e6
:101b08006002ab00feff320043138000834278007e
:101b180044fd2f000f024200057279008140e80061
:101b28000181fb00e44179008381fb0043138800b5
:101b38006002ab00feff320043138000834278004e
:101b480044fd2f000f024200057279008140e80031
:101b58000181fb00e44179008381fb004313880085
:101b68006002ab00feff320043138000834278001e
:101b780044fd2f000f024200057279008140e80001
:101b8800c442a8000000e800f80f50009dff3a008a
:101b9800c442a90030002000401388006002ab0056
:101ba800feff3200401380007ff097000080fb00aa
:101bb800401388006002ab00feff32004013800033
:101bc800f0f79f00c442a800c442a90040002000ca
:101bd800401388006002ab00feff32004013800013
:101be8000ff897000080fb00401388006002ab00ec
:101bf800feff32004013800080ff9f00c442a8000f
:101c080068855700c99c280038fd2f000f04440040
:101c18005880fb00801f7800891f78008cfa070025
:101c2800e48757000804e8001880fb00801f78004c
:101c3800891f780086fa0700e48757000800e80043
:101c48001080fb00801f7800891f780080fa070049
:101c5800e48757000880e8001080fb00801f7800a8
:101c6800891f78007afa0700e48757006300440068
:101c78001080fb00801f7800891f780074fa070025
:101c8800e4875700640044001080fb00801f780040
:101c9800891f78006efa0700e48757006500440042
:101ca8001080fb00801f7800891f780068fa070001
:101cb800e4875700660044001080fb00801f78000e
:101cc800891f780062fa0700e4875700670044001c
:101cd8001080fb00801f7800891f78005cfa0700dd
:101ce800e4875700680444001880fb00801f7800d0
:101cf800891f780056fa0700e48757008a0f5400b6
:101d0800c8ff3a00a00020004ffa07004f057800ee
:101d18004f04be000080fa0000000600c442a9007b
:101d28006822ef006002ab00feff32004013800023
:101d38006822ef006002ab00feff32004013800013
:101d4800c442a8000008a3000d003a000004a00047
:101d5800c442a90001022000411388006002ab00c0
:101d6800feff3200411380000080fb004013880012
:101d78006002ab00feff320040138000c442a8009e
:101d880000000600c442a9006822ef006002ab0010
:101d9800feff3200401380006822ef006002ab00b3
:101da800feff320040138000c442a8000008a300d0
:101db8000d0032000004a100c442a9000102200065
:101dc800411388006002ab00feff3200411380001f
:101dd8000080fb00401388006002ab00feff320069
:101de80040138000c442a80000000600501680007e
:101df800640060000000e9004f00de0000000600fb
:101e0800c442a900f00f2000401388006002ab0014
:101e1800feff320040138000c442a8004600de00e6
:101e28006100600000000600c442a900f00f200015
:101e3800401388006002ab00feff320040138000b0
:101e4800c442a8004500de006100600000000600f2
:101e5800c442a900f00f2000401388006002ab00c4
:101e6800feff320040138000c442a8004400de0098
:101e78006100600000000600c442a900f00f2000c5
:101e8800401388006002ab00feff32004013800060
:101e9800c442a8000003b2000000ea004f00de00c0
:101ea80000000600c442a900a102200041138800d6
:101eb8006002ab00feff3200411380009080fb00ff
:101ec800411388006002ab00feff3200411380001e
:101ed800800078005181fb00421388006002ab004b
:101ee800feff3200421380000082e8001481fb00ec
:101ef800421388006002ab00feff320042138000ec
:101f0800e30140001381fb00421388006002ab002c
:101f1800feff320042138000640140009282fb0001
:101f2800451388006002ab00feff320045138000b5
:101f3800c442a800c442a900050320004513880034
:101f48006002ab00feff3200451380001080fb00ea
:101f5800401388006002ab00feff3200401380008f
:101f68001180fb00401388006002ab00feff3200c6
:101f7800401380001480fb00401388006002ab000f
:101f8800feff3200401380001380fb0040138800de
:101f98006002ab00feff3200401380001280fb009d
:101fa800401388006002ab00feff3200401380003f
:101fb800c442a800000006009680a900cc82a900af
:101fc800401288004002ab00feff32004012800041
:101fd800411288004002ab00feff32004012800030
:101fe800cc82a8009680a800000006009680a90070
:101ff800cc82a9000070a000401288004002ab000b
:10200800feff3200401280004822ef004002ab0081
:10201800feff320040128000cc82a8009680a80003
:10202800000006008000eb00a0062000e2ff070089
:1020380011002000b0062000dfff070000000600a6
:10204800c0062000e9ff070080007800710cb2008c
:10205800c0062000d8ff070000000600c0062000c8
:10206800e2ff0700800078008103b300c00620006b
:10207800d1ff070000000600c0062000dbff0700b4
:1020880080007800810fb200c0062000caff070058
:1020980000000600c0062000d4ff0700800078007a
:1020a8007100b300c0062000c3ff0700000006004f
:1020b800c962a900cd62a900c922a900c882a900e5
:1020c800cc82a800c8c2a90000fe2f0032368000ca
:1020d800820060007100b30031368800c942a80050
:1020e800a806b600a000b30040358800f00f2e0007
:1020f800c806b60000b0a000403688004382a90098
:102108004362a9004342a9004322a8004302a90050
:1021180042c2a80042e2a90042a2a800c0012000d1
:102128004222b700300020004222b7004422ef00cc
:1021380041e2a800000006002023ef002043a90088
:102148002223ef00f0ff21002223b6002423ef0012
:1021580080c0b30024e3b70021e3a80000fe2f00ed
:102168002803b6000000a000401988002023a8001a
:102178002c23a9000000060041e2a9004362a80040
:102188004342a8004302a80042c2a90000fe2f0053
:10219800a806b600d000b3004035880041e2a80088
:1021a8000000060041e2a9004362a9004342a900d9
:1021b8004302a90042c2a80000fe2f00a806b600ec
:1021c800a000b3004035880041e2a80000000600e6
:1021d800e9ff0700cd62a800c00020000100200030
:1021e8006e0407002608e20013003a00cd02a8009a
:1021f8004822ef004002ab00feff32004012800090
:102208004822ef004002ab00feff3200401280007f
:102218008000eb00d2408000e340800002014000d3
:1022280083814800d2408800e340880010002000e5
:102238003041880018003700cd02a9004822ef007d
:102248004002ab00feff3200401280008000eb002d
:102258001241800023418000020140008381480030
:1022680012418800234188004822ef004002ab0059
:10227800feff3200401280008000eb00f240800038
:10228800034180000201400083814800f240880039
:10229800034188002628ef00cd62a900c1ff07008e
:1022a80030408000e1022000810f50001500360008
:1022b800104180002141800090408800a1408800a2
:1022c800d0408000e1408000f2408000034180005f
:1022d8000000510081805900b0408800c14088004a
:1022e8002228ef002428ef000628ef001e28ef0020
:1022f8002028ef001a28ef001c28ef0010c0b300b8
:10230800030037000000e800304088000040eb0080
:1023180000000600881f780000a821006100200046
:102328001e040700010420000007200022ff070008
:10233800500720002dff0700f20f50000200320066
:10234800c482a9000e00370036ff0700a8822000cb
:10235800184478000884fb000808a3000200320033
:1023680037ff0700010037003cff07000818a300eb
:102378000200320040ff07000100370045ff070058
:102388004f047800000006003600f800809fbe0069
:10239800829fbe00849fbe00869fbe003400f80066
:1023a80000002000a001880040418000e10f50009b
:1023b80005003a0011082000b0062000fefe0700c4
:1023c800cc82a8000000fe008680a9003400f90035
:1023d8004f03be004f02be004f01be004f00be00bb
:1023e8003600f900004006000080eb006019880004
:1023f8000016880040168800c9e2a800f10f2e00d8
:10240800003480008080600000f02000010070002f
:10241800003488008220a80080ff2f00ae00b6009c
:102428006000b300700588008680a9009680a80027
:10243800c082a900c9c2a900cdc2a8000040fe0000
:10244800100020004041880000000600f08f2f0097
:102458004427b6000080eb00601988000016880049
:1024680040168800c082a900c482a900c9c2a90078
:10247800cdc2a900c902a900cd02a9000cff07001e
:102488002dff0700a3ff070000f421000100200032
:10249800c2030700000006008460a900004006008f
:1024a8000421ef000021ef0000c429001008880073
:1024b8000421a90005a1a90000002700a420b70055
:1024c8008460a9009460a80005e1a9000000060046
:1024d8001021ef001221ef000a21ef000621ef0082
:1024e8000080eb0070088800600888000000270062
:1024f800a620b70070002000a820b7001061a8002f
:10250800000006000821ef000621ef0011e1a800f5
:102518000000060032088000400880008000eb00c0
:10252800c000dd000000200000004100e0804800fd
:102538004e09dd004200de0000007100c208de0026
:102548000000060011e1a900320880004008800060
:102558008000eb00c000dd0000002000000041000a
:10256800e08048004e09dd004200de0000007100f6
:10257800c208de000000060011e1a9000000060004
:102588002ac8bf006740600000000600889fbe00a0
:10259800e74460000984fb000808a3000400320037
:1025a8002a08ab0005003a00a5fe07000300370023
:1025b8002a08ab0001003200a8fe07000818a30093
:1025c800040032002a28ab0005003a00aafe0700e2
:1025d800030037002a28ab0001003200adfe0700d7
:1025e80080cfb300a18220009140780000c0600035
:1025f80080c4740089407800a082200001487800d7
:102608004f04be0000000600889fbe00000478004a
:10261800a9822000994478008984fb000908a30056
:1026280012003200b003200070fe0700004c780052
:10263800c00320006dfe070010449800d00320005e
:102648006afe070020449800e003200067fe0700a8
:1026580030449800f003200064fe070040449800ce
:102668000004200061fe0700504498000918a300e8
:1026780012003200300420005cfe0700604498001d
:102688004004200059fe07007044980050042000c0
:1026980056fe0700004c98006004200053fe070017
:1026a800104c98007004200050fe0700204c980041
:1026b800800420004dfe0700304c98000928a30034
:1026c800060032001004200048fe0700404c980025
:1026d8002004200045fe0700504c98004f04be001f
:1026e800000006002023a9002003ab00feff3200f3
:1026f800001880002023a8004300de000000060028
:102708007040800081408000000006000e28ef0025
:102718001028ef0000000600614180000100400021
:10272800d00888000000060000a0fe003600f8006f
:10273800849fbe00869fbe0070408000814080005c
:1027480061004000e08048007040880081408800b7
:102758009ffe07000004e0000200320010c0b30032
:102768000ce8b7008760a9004f03be004f02be0007
:102778003600f9000080fe00004006000041eb0032
:102788000c48e2000700320092408000a34080001d
:102798000288be00b2408000c34080008288be002c
:1027a80012c0b3000240780000000600889fbe00f7
:1027b8008a1f78008c9fbe0080047800010578008d
:1027c800a182200091407800f88060000040eb0072
:1027d800e88f500014003a0067fe0700cd62a80099
:1027e800c000200001002000ec0207004822ef0092
:1027f8004002ab00feff32004c128000cfe6de0044
:102808004822ef004002ab00feff32004812800071
:10281800cd62a90063fe07008c8cbe00cfc4de0029
:10282800088dbe0010c0b3004f06be004f057800eb
:102838004f04be00000006001421ef000e28ef0030
:102848001028ef000228ef000428ef000628ef0008
:102858000828ef000a28ef001fe1a80010c0b30005
:1028680000e8b700000006001e21ef001421ef0069
:1028780000c42900d008880000002700b020b70055
:102888008760a9009760a800f0fc2f001e21b60001
:102898002a88ab0004003200a0292000604188008b
:1028a800d0088800e4ff0700000006000068ef0079
:1028b8001fe1a9000228ef000428ef000628ef0016
:1028c8000828ef000a28ef000c68ef000000060057
:1028d80000c8bf0000000600881f78007844600028
:1028e8000848a30008003200f9ff07000004e000d0
:1028f80009003a00a029200060418800d00888001b
:10290800cdff070004003700f1ff07000004e000d6
:1029180001003200e5ff070070ceb300a18220005d
:102928009140780000c0600008447000884078003a
:10293800a0822000014878004f04780000000600bb
:102948001600fa00889fbe008a9fbe008c9fbe00ba
:10295800c462a800c0022000010020008f02070006
:10296800e8fe070008f42100090020000c192000e7
:102978000d0020000ae823001f003700e5fe0700cd
:10298800800f5400818f5c001b003100c462a900d5
:10299800cfff07000004e0000c003200c3ff07006f
:1029a800f5fe07001a08880005e1a8000140fe00ae
:1029b80005e1a900c462a800c002200001002000af
:1029c800760207009cff070009003700eafe0700af
:1029d8001a08880005e1a8000140fe0005e1a900e9
:1029e800c462a800c0022000010020006b0207009a
:1029f800c4fe07000c04be00fcfc07000004e00055
:102a0800deff3200fefc07000004e000dbff3200be
:102a1800ccfe0700aeff070000447800b9fe0700af
:102a2800c462a90020882000050009000058eb00b6
:102a3800c442a90010062000401388006002ab00c1
:102a4800feff3200401380006822ef006002ab00f6
:102a5800feff32004013800080407800228820006a
:102a6800004978006822ef006002ab00feff3200e8
:102a78004013800000457800328820000049780023
:102a88006822ef006002ab00feff320042138000b4
:102a980040882000024878006822ef006002ab00fe
:102aa800feff320042138000508820000248780060
:102ab8006822ef006002ab00feff32004213800084
:102ac80060882000024878006822ef006002ab00ae
:102ad800feff320040138000804178007288200099
:102ae80000497800c442a800c442a900700220002e
:102af800401388006002ab00feff320040138000e4
:102b080000072000401388006002ab00feff32007f
:102b180040138000c442a800c442a900200e20002f
:102b2800401388006002ab00feff320040138000b3
:102b3800c442a80040c3b30080cf500061013a00ee
:102b480080cf51005f013a00218a20001f00090050
:102b58008058eb000a04e00004003d000a407800b9
:102b68008afe07000a4078005bff07000f00780024
:102b78002002b100060009000018eb0080fe0700e3
:102b88000004e00003003200e0fd2f000f004000c9
:102b98009dfe070040c3b300218a200080487800ca
:102ba80012c0b3008100e8008248780071418000bb
:102bb8008100e8007141880021458800118c2000bf
:102bc800804878007b805000efd897000148780053
:102bd8000000e800ffd89700014878000000e800ee
:102be8008fe09700014878000000e8009fe0970018
:102bf800014878000000e800afe09700014878003d
:102c08000000e800bfe09700014878000000e800f5
:102c1800cfe09700014878000000e800dfe0970067
:102c2800014878000000e800efe0970001487800cc
:102c38000000e800ffe09700014878000000e80085
:102c48008fe89700014878000000e8009fe89700a7
:102c5800014878000000e800afe8970001487800d4
:102c68000000e800bfe89700014878000804e00089
:102c7800130032006000b80080bf9f0091bf9f0022
:102c8800e0b79f00f1b79f00f480570070805700ad
:102c9800bafe07000004e0001b003200408b200051
:102ca800f08057000300090031587800808b20001d
:102cb800f4805700030009003158780012003700eb
:102cc8006000b800e0b79f00f1b79f0080bf9f0089
:102cd80091bf9f00f080570074805700b3fe070033
:102ce8000004e00008003200408b2000f480570008
:102cf8000300090031587800808b2000f0805700cd
:102d0800030009003158780076fe0700c18b2000c7
:102d1800804878001bfc0700c442a900000a200074
:102d2800401388006002ab00feff320040138000b1
:102d3800208a20001080fb00401388006002ab004e
:102d4800feff320040138000308a20001080fb0014
:102d5800401388006002ab00feff32004013800081
:102d6800408a20001080fb00401388006002ab00fe
:102d7800feff320040138000508a20001080fb00c4
:102d8800401388006002ab00feff32004013800051
:102d9800608a20001080fb00401388006002ab00ae
:102da800feff320040138000708a20001080fb0074
:102db800401388006002ab00feff32004013800021
:102dc800808a20001080fb00401388006002ab005e
:102dd800feff320040138000908a20001080fb0024
:102de800401388006002ab00feff320040138000f1
:102df800a08a20001080fb00401388006002ab000e
:102e0800feff320040138000b08a20001080fb00d3
:102e1800401388006002ab00feff320040138000c0
:102e2800c08a20001080fb00401388006002ab00bd
:102e3800feff320040138000d08a20001080fb0083
:102e4800401388006002ab00feff32004013800090
:102e5800e08a20001080fb00401388006002ab006d
:102e6800feff320040138000f08a20001080fb0033
:102e7800401388006002ab00feff32004013800060
:102e8800008b20001080fb00401388006002ab001c
:102e9800feff320040138000108b20001080fb00e2
:102ea800401388006002ab00feff32004013800030
:102eb800208b20001080fb00401388006002ab00cc
:102ec800feff320040138000308b20001080fb0092
:102ed800401388006002ab00feff32004013800000
:102ee800408b20001080fb00401388006002ab007c
:102ef800feff320040138000508b20001080fb0042
:102f0800401388006002ab00feff320040138000cf
:102f1800608b20001080fb00401388006002ab002b
:102f2800feff320040138000708b20001080fb00f1
:102f3800401388006002ab00feff3200401380009f
:102f4800808b20001080fb00401388006002ab00db
:102f5800feff320040138000908b20001080fb00a1
:102f6800401388006002ab00feff3200401380006f
:102f7800a08b20001080fb00401388006002ab008b
:102f8800feff320040138000b08b20001080fb0051
:102f9800401388006002ab00feff3200401380003f
:102fa800c08b20001080fb00401388006002ab003b
:102fb800feff320040138000d08b20001080fb0001
:102fc800401388006002ab00feff3200401380000f
:102fd800e08b20001080fb00401388006002ab00eb
:102fe800feff320040138000f08b20001080fb00b1
:102ff800401388006002ab00feff320040138000df
:10300800008c20001080fb00401388006002ab0099
:10301800feff320040138000108c20001080fb005f
:10302800401388006002ab00feff320040138000ae
:10303800c442a80037fd0700c1352000810f5000a9
:1030480015003e0041382000008050000804e000d0
:103058000c0032004200dd001008880005e1a800dd
:103068003a3820000b0020000140fe0029fd07002f
:103078008a0f50008b8f5800fbff360005e1a9002e
:10308800050037004200dd001008880005e1a800af
:103098000140fe0005e1a900c462a800c0022000aa
:1030a80001002000bd00070050fb07000004e000fd
:1030b800fdff320070fb07000004e000faff320059
:1030c800c462a900c442a90070022000401388000d
:1030d8006002ab00feff32004013800000072000b2
:1030e800401388006002ab00feff320040138000ee
:1030f800c442a800c442a900100e20004013880052
:103108006002ab00feff320040138000c442a800fa
:1031180002fb07000bfd07000804e00007003a0067
:1031280062ea2000000051004200dd00100888001b
:1031380005e1a8000140fe0005e1a9004f06be0018
:103148004f05be004f04be000080fa0000000600d4
:1031580000a821006100200090000700a2fc0700e1
:10316800bafc07008ef80700c482a800c462a90050
:10317800d68e200060c0b300801f78006500530021
:10318800801f78007900400010407800801f780088
:103198006f00430010407800801f78006a004300e9
:1031a80010407800801f78006500430010407800c8
:1031b800801f78008603780035c6b3000042eb0014
:1031c8008441780052c0b30011c0b30004407800b5
:1031d80099f80700c442a900700220004013880033
:1031e800ec8757006002ab00feff320040138000fe
:1031f80000072000401388006002ab00feff320089
:1032080040138000c442a800c442a900100e200048
:10321800401388006002ab00feff320040138000bc
:10322800c442a800c442a900200e20004013880010
:103238006002ab00feff320040138000c442a800c9
:1032480097fc0700a2fc070087fd0700bcfd0700ec
:04325800feff37003e
:020000040000fa
:10325c00e80800001e00000002000000e7e7e7009d
:10326c00e7e7e100b6b5b400b3cdb600b5b4b30032
:10327c00a3b6b500b4b32e00b6b5b400b315b60002
:10328c00b5b4b3008208000040000000000000004c
:10329c002e080000020000000000000000080000e2
:1032ac002a000000000000002a08000004000000b2
:1032bc00020000000900010000000000c20800002c
:1032cc0026000000020000000709000000070900aa
:1032dc0009000000000200000909000000090900b3
:1032ec000e020100000000000000000000000000c1
:1032fc000602020000000000c208000006090000df
:10330c000600000000000000300800005200000021
:10331c0002000000303132003334350036373800cb
:10332c0039414200434445004600300031323300fd
:10333c0034353600373839006162630064656600e5
:10334c0000286e00756c6c00290000000100000064
:10335c00000a00000000640000000000e803000008
:10336c00001027000000a0008601000040420f0062
:10337c000080960098000000e1f5050000ca9a0054
:10338c003b0000000c0900000200000002000000dd
:08339c00010000000000000028
:020000040000fa
:1033a400f03fb1000180b10006003500ee030900d2
:1033b40000000000403fb1000180b100fbff3d0070
:1033c4001000b000203fb00002003500008009006a
:0833d4000000000000000600eb
:020000040000fa
:020000040001f9
:0457f0003fff000077
:020000040000fa
:020000040001f9
:0457f400fffc0000b6
:020000040000fa
:020000040001f9
:0457f8009bff000013
:020000040000fa
:020000040001f9
:0457fc007f3f0000eb
:00000001FF
